:020000040800F2
:1000000000000220411E00086D1B0008731B000841
:10001000791B00087F1B0008851B000800000000FA
:100020000000000000000000000000008B1B000822
:10003000991B000800000000A71B0008B51B000862
:10004000911E0008911E0008911E0008911E0008D4
:10005000911E0008911E0008911E0008911E0008C4
:10006000911E0008911E0008911E0008911E0008B4
:10007000911E0008911E0008911E0008911E0008A4
:10008000911E0008911E0008911E0008911E000894
:10009000C11B0008911E0008911E0008911E000857
:1000A000911E0008911E0008911E0008911E000874
:1000B000D51B0008911E0008911E0008911E000823
:1000C000911E0008911E0008911E0008911E000854
:1000D000911E0008911E0008E91B0008911E0008EF
:1000E000911E0008911E0008911E0008911E000834
:1000F000911E0008911E0008911E0008911E000824
:10010000911E0008911E0008911E0008911E000813
:10011000911E0008911E0008911E0008911E000803
:10012000911E0008911E0008911E0008911E0008F3
:10013000911E00080000000000000000911E000851
:10014000911E0008FD1B0008911E0008911E00086A
:10015000911E0008911E0008911E0008911E0008C3
:10016000911E0008911E0008911E0008911E0008B3
:10017000911E0008911E0008000000000000000011
:08018000911E0008911E000809
:1001900010B5054C237833B9044B13B10448AFF3C1
:1001A00000800123237010BD7800002000000000B3
:1001B000AC67000808B5034B1BB103490348AFF314
:1001C000008008BD000000007C000020AC67000833
:1001D00001F0FF01102A2BDB10F0070F08D010F8F8
:1001E000013B013A8B422DD010F0070F42B3F6D1FC
:1001F000F0B441EA012141EA014122F007047FF015
:1002000000070023F0E80256083C85EA010586EA6B
:10021000010685FA47F5A3FA87F586FA47F6A5FAA7
:1002200087F68EB9EED1F0BC01F0FF0102F00702B3
:1002300032B110F8013B013A83EA010313B1F8D15E
:100240000020704701387047002D06BF354603383F
:10025000073815F0010F07D1013015F4807F02BF78
:10026000013015F4C03F0130F0BC0138704700BFC9
:1002700053B94AB9002908BF00281CBF4FF0FF310D
:100280004FF0FF3000F074B9ADF1080C6DE904CE09
:1002900000F006F8DDF804E0DDE9022304B0704761
:1002A0002DE9F047089D04468E46002B4DD18A4229
:1002B000944669D9B2FA82F252B101FA02F3C2F15C
:1002C000200120FA01F10CFA02FC41EA030E9440ED
:1002D0004FEA1C48210CBEFBF8F61FFA8CF708FB0E
:1002E00016E341EA034306FB07F199420AD91CEBE6
:1002F000030306F1FF3080F01F81994240F21C8118
:10030000023E63445B1AA4B2B3FBF8F008FB10335F
:1003100044EA034400FB07F7A7420AD91CEB040494
:1003200000F1FF3380F00A81A74240F20781644464
:10033000023840EA0640E41B00261DB1D4400023E9
:10034000C5E900433146BDE8F0878B4209D9002D4D
:1003500000F0EF800026C5E9000130463146BDE8D7
:10036000F087B3FA83F6002E4AD18B4202D3824241
:1003700000F2F980841A61EB030301209E46002DF0
:10038000E0D0C5E9004EDDE702B9FFDEB2FA82F245
:10039000002A40F09280A1EB0C014FEA1C471FFAA3
:1003A0008CFE0126200CB1FBF7F307FB131140EA8A
:1003B00001410EFB03F0884208D91CEB010103F157
:1003C000FF3802D2884200F2CB804346091AA4B219
:1003D000B1FBF7F007FB101144EA01440EFB00FEED
:1003E000A64508D91CEB040400F1FF3102D2A64552
:1003F00000F2BB800846A4EB0E0440EA03409CE7F1
:10040000C6F12007B34022FA07FC4CEA030C20FA9D
:1004100007F401FA06F31C43F9404FEA1C4900FABD
:1004200006F3B1FBF9F8200C1FFA8CFE09FB18113A
:1004300040EA014108FB0EF0884202FA06F20BD9AD
:100440001CEB010108F1FF3A80F08880884240F2FD
:100450008580A8F102086144091AA4B2B1FBF9F041
:1004600009FB101144EA014100FB0EFE8E4508D93C
:100470001CEB010100F1FF346CD28E456AD90238C1
:10048000614440EA0840A0FB0294A1EB0E01A142A6
:10049000C846A64656D353D05DB1B3EB080261EB14
:1004A0000E0101FA07F722FA06F3F1401F43C5E9EE
:1004B000007100263146BDE8F087C2F12003D84024
:1004C0000CFA02FC21FA03F3914001434FEA1C4766
:1004D0001FFA8CFEB3FBF7F007FB10360B0C43EA58
:1004E000064300FB0EF69E4204FA02F408D91CEB08
:1004F000030300F1FF382FD29E422DD90238634406
:100500009B1B89B2B3FBF7F607FB163341EA0341A5
:1005100006FB0EF38B4208D91CEB010106F1FF38F4
:1005200016D28B4214D9023E6144C91A46EA0046EB
:1005300038E72E46284605E70646E3E61846F8E67D
:100540004B45A9D2B9EB020864EB0C0E0138A3E7C6
:100550004646EAE7204694E74046D1E7D0467BE7A7
:10056000023B614432E7304609E76444023842E71F
:10057000704700BF80B582B000AF0346FB7105E055
:100580001B4B1B780133DAB2194B1A70194803F070
:1005900099FF0346032BF3D0F91D6423012215486C
:1005A00003F0A1FB124B00221A7005E0104B1B78E0
:1005B0000133DAB20E4B1A700E4803F083FF034684
:1005C000042BF3D0F91D642301220A4803F0C7FC71
:1005D00003461A46084B1A7000BF064803F072FF24
:1005E0000346022BF9D000BF00BF0837BD4680BDCF
:1005F00094000020E80000209500002080B582B023
:1006000000AF03460A46FB711346BB71BB79002B52
:1006100006D001224FF480710D4802F069FE05E01A
:1006200000224FF480710A4802F062FE002280210D
:10063000074802F05DFEFB791846FFF79BFF012299
:100640008021034802F054FE00BF0837BD4680BD3C
:100650000004024080B582B000AF03460A46FB7139
:100660001346BB71FB7900211846FFF7C7FFBB7922
:1006700001211846FFF7C2FF00BF0837BD4680BD05
:1006800080B584B000AF0346FB80F023BB60BA683E
:1006900013469B0013449B01BB6000212A20FFF7F7
:1006A000ADFF01210020FFF7A9FF01210020FFF786
:1006B000A5FF01210020FFF7A1FF0121EF20FFF797
:1006C0009DFF00212B20FFF799FF01210020FFF75C
:1006D00095FF01210020FFF791FF01210120FFF785
:1006E0008DFF01213F20FFF789FF00212C20FFF71C
:1006F00085FF00228021144802F0FAFD01224FF408
:100700008071114802F0F4FD0023FB600EE0FB88CD
:100710001B0A9BB2DBB21846FFF72CFFFB88DBB24B
:100720001846FFF727FFFB680133FB60FA68BB68D8
:100730009A42ECD301228021034802F0D9FD00BF88
:100740001037BD4680BD00BF0004024080B500AF39
:1007500001220421814802F0CBFD012280217F4843
:1007600002F0C6FD012240217C4802F0C1FD0122B9
:1007700004217A4802F0BCFD052001F0FDFB0022B7
:100780000421764802F0B4FD052001F0F5FB0122BA
:100790000421724802F0ACFD052001F0EDFB0122BE
:1007A00080216E4802F0A4FD00211120FFF726FFF2
:1007B0000A2001F0E1FB00213620FFF74BFF052165
:1007C0003A20FFF747FF0021B220FFF717FF012172
:1007D0000C20FFF713FF01210C20FFF70FFF012171
:1007E0000020FFF70BFF01213320FFF707FF012156
:1007F0003320FFF703FF3521B720FFF72BFF282118
:10080000BB20FFF727FF3C21C020FFF723FF01217A
:10081000C220FFF71FFF0B21C320FFF71BFF202182
:10082000C420FFF717FF0F21C620FFF713FF002199
:10083000D020FFF7E3FE0121A420FFF7DFFE012116
:10084000A120FFF7DBFE0021E020FFF7D7FE01210A
:10085000D020FFF7D3FE01210120FFF7CFFE0121B9
:100860000820FFF7CBFE01210F20FFF7C7FE012173
:100870001120FFF7C3FE01212A20FFF7BFFE01214F
:100880003620FFF7BBFE01215520FFF7B7FE0121FF
:100890004420FFF7B3FE01213A20FFF7AFFE01210C
:1008A0000B20FFF7ABFE01210620FFF7A7FE012179
:1008B0001120FFF7A3FE01212020FFF79FFE00215A
:1008C000E120FFF79BFE0121D020FFF797FE0121D9
:1008D0000220FFF793FE01210720FFF78FFE012181
:1008E0000A20FFF78BFE01210B20FFF787FE012175
:1008F0001820FFF783FE01213420FFF77FFE01213E
:100900004320FFF77BFE01214A20FFF777FE0121FC
:100910002B20FFF773FE01211B20FFF76FFE012143
:100920001C20FFF76BFE01212220FFF767FE01214B
:100930001F20FFF763FE00212920FFF75FFEFF2144
:100940005120FFF787FEB0215520FFF783FE4FF6B9
:10095000FF70FFF795FE00BF80BD00BF000402409E
:1009600080B400AF124B0A225A61114B00229A61E7
:100970000F4B00221A610E4B4FF4A2521A600C4B1F
:1009800000225A600A4B4FF4A2529A60084B002290
:10099000DA60074B0122DA61054B01221A62044B2F
:1009A0000E225A6200BFBD465DF8047B704700BF4F
:1009B0003402002080B400AF124B14225A61114B54
:1009C00000229A610F4B01221A610E4B4FF41072F4
:1009D0001A600C4B00225A600A4B4FF410729A6056
:1009E000084B0022DA60074B0122DA61054B012235
:1009F0001A62044B0E225A6200BFBD465DF8047BAA
:100A0000704700BF5C02002080B487B000AF786000
:100A100039601D23FB72FF23FB7500233B6122E03D
:100A20003B697A6813441A78FB7D5340FB750023B9
:100A3000FB6012E097F91730002B08DAFB7D5B00B2
:100A40005AB297F90B3053405BB2FB7502E0FB7D65
:100A50005B00FB75FB680133FB60FB68072BE9DD7E
:100A60003B6901333B613A693B689A42D8DBFB7DC5
:100A7000DB43DBB218461C37BD465DF8047B70478C
:100A800080B400AF0B4B08221A610A4B00229A6017
:100A9000084B0022DA60074B12221A60054B022233
:100AA0005A60044B00221A7500BFBD465DF8047BF6
:100AB000704700BFE801002080B400AF0B4B082254
:100AC0001A610A4B00229A60084B0022DA60074B39
:100AD000A2221A60054B02225A60044B00221A75AA
:100AE00000BFBD465DF8047B704700BF1C020020BC
:100AF00080B400AF054B22221A70044B12225A70A8
:100B000000BFBD465DF8047B704700BF9002002027
:100B100080B500AF0C4B1A780C4B1A700A4B5A7800
:100B20000A4B5A70084B1A78074B5B781344DAB2B9
:100B3000064B9A7007210548FFF766FF03461A46E1
:100B4000024BDA7100BF80BD9002002088020020B5
:100B500080B500AF01F09EF900F062F800F0E0F916
:100B600000F0C6F800F0FAF800F0B0F900F062F911
:100B700000F02AF9FFF7F4FEFFF71CFFFFF780FFF4
:100B8000FFF79AFFFFF7B4FFFFF7C2FF1A4803F021
:100B900027FE1A4801F0F0FB194801F0EDFB194956
:100BA000164801F009FB1849154801F005FB022120
:100BB000124801F012FE1021114801F00EFEFFF75D
:100BC000C5FD00F06DFC0A2001F06AF80F4B1B68B0
:100BD000002BFBD00E4B0F4A0F49094801F010FCC7
:100BE0000346002B04D1012202210C4802F080FBB5
:100BF000642001F055F8E9E740010020980000204A
:100C0000C0000020340200205C02002054030020B9
:100C100084020020900200201C02002000040240F8
:100C200080B594B000AF07F12003302200211846B0
:100C300005F046F907F10C0300221A605A609A6029
:100C4000DA601A610023BB60274B1B6C264A43F015
:100C500080531364244B1B6C03F08053BB60BB6850
:100C600000237B60214B1B68204A43F480431360C0
:100C70001E4B1B6803F480437B607B6802233B624E
:100C80000123FB6210233B630223BB630023FB634E
:100C900008233B6450237B640223BB640423FB646E
:100CA00007F12003184602F03DFB0346002B01D05C
:100CB00000F0E8FA0F23FB6002233B6180237B6195
:100CC0000023BB610023FB6107F10C0301211846DF
:100CD00002F0A0FD0346002B01D000F0D3FA00BFC4
:100CE0005037BD4680BD00BF003802400070004054
:100CF00080B500AF174B184A1A60164B14225A6081
:100D0000144B00229A60134B0022DA60114B4FF40F
:100D100080321A610F4B00225A610E4B00221A7664
:100D20000C4B00225A760B4B00229A76094B00227C
:100D3000DA76084B00221A77064B00225A770548CC
:100D400001F03EF90346002B01D000F09BFA00BFF2
:100D500080BD00BF980000200064004080B500AF57
:100D6000174B184A1A60164B14225A60144B002273
:100D70009A60134B0022DA60114B4FF480321A61F3
:100D80000F4B00225A610E4B00221A760C4B0022A8
:100D90005A760B4B00229A76094B0022DA76084BE2
:100DA00000221A77064B00225A77054801F008F90D
:100DB0000346002B01D000F065FA00BF80BD00BFE4
:100DC000C00000200068004080B500AF174B184AF3
:100DD0001A60164B4FF482725A60144B00229A60CC
:100DE000124B0022DA60114B00221A610F4B0022D5
:100DF0005A610E4B4FF400729A610C4B1822DA6163
:100E00000A4B00221A62094B00225A62074B002249
:100E10009A62064B0A22DA62044802F0DBFE0346BD
:100E2000002B01D000F02EFA00BF80BDE8000020AA
:100E30000030014080B586B000AF07F10803002202
:100E40001A605A609A60DA603B4600221A605A6063
:100E50001D4B4FF080421A601B4B4DF636725A60A4
:100E6000194B00229A60184B0722DA60164B0022B9
:100E70001A61154B00229A61134803F061FC034686
:100E8000002B01D000F0FEF94FF48053BB6007F156
:100E9000080319460C4803F01BFE0346002B01D043
:100EA00000F0F0F900233B6000237B603B461946CD
:100EB000054804F037F80346002B01D000F0E2F9B2
:100EC00000BF1837BD4680BD4001002080B500AF8F
:100ED000114B124A1A60104B4FF416525A600E4BC7
:100EE00000229A600C4B0022DA600B4B00221A6140
:100EF000094B0C225A61084B00229A61064B0022D2
:100F0000DA61054804F09EF80346002B01D000F09A
:100F1000B9F900BF80BD00BF880100200044004037
:100F200080B58AB000AF07F1140300221A605A603E
:100F30009A60DA601A6100233B61364B1B6B354ABD
:100F400043F080031363334B1B6B03F080033B615F
:100F50003B690023FB602F4B1B6B2E4A43F00103C0
:100F600013632C4B1B6B03F00103FB60FB68002336
:100F7000BB60284B1B6B274A43F002031363254BCE
:100F80001B6B03F00203BB60BB6800237B60214B3B
:100F90001B6B204A43F0040313631E4B1B6B03F0CF
:100FA00004037B607B68002240F287111A4802F03C
:100FB0009FF902237B610023BB610123FB6107F1E1
:100FC00014031946154801F0F7FF40F287137B61BF
:100FD0000123BB610023FB6100233B6207F1140383
:100FE00019460D4801F0E8FF4FF440637B6102238E
:100FF000BB610023FB6103233B6207237B6207F194
:1010000014031946064801F0D7FF00BF2837BD4634
:1010100080BD00BF003802400004024000000240D2
:101020000008024080B582B000AF786000F04CFE4E
:1010300000BF0837BD4680BD80B586B004AF78607C
:10104000304B314A0021314801F0B5FA0346002BFC
:1010500053D12D4B1B69082B4FD12D4B1B681A46C2
:101060002C492D4804F034FF264B1B781A462B4997
:101070002B4804F02DFF234B5B781A4629492A4858
:1010800004F026FF294B4FF6FF7202924FF478428C
:1010900001925A6800921B681F4A0021002000F04C
:1010A0005BFB224B4FF6FF7202924FF478420192A3
:1010B0005A6800921B681A4A1321002000F04CFB6A
:1010C0001A4B4FF6FF7202924FF4784201925A681F
:1010D00000921B68144A2621002000F03DFB144BAF
:1010E000144A1549094801F08BF90346002B04D135
:1010F00001220121114802F0FBF800BF0837BD466C
:1011000080BD00BF98020020CC0100209800002084
:101110001C020020C4670008A8020020D467000851
:10112000BC020020E4670008D0020020000000207C
:101130008402002088020020E80100200004024010
:1011400080B586B004AF78603F4B404A01214048EB
:1011500001F031FA0346002B71D13C4B1B69082B7F
:101160006DD13C4B1B681A463B493C4804F0B0FE2D
:10117000354B1B781A463A493A4804F0A9FE324BDF
:101180005B781A463849394804F0A2FE2E4B9B780A
:101190001A463749374804F09BFE2B4BDB791A4639
:1011A0003549364804F094FE354B4FF6FF720292F3
:1011B0004FF4784201925A6800921B68274A3921FD
:1011C000002000F0C9FA2E4B4FF6FF7202924FF446
:1011D000784201925A6800921B68224A4C210020F2
:1011E00000F0BAFA264B4FF6FF7202924FF47842A3
:1011F00001925A6800921B681C4A5F21002000F08F
:10120000ABFA1F4B4FF6FF7202924FF478420192F5
:101210005A6800921B68174A7221002000F09CFA5D
:10122000174B4FF6FF7202924FF4784201925A68C0
:1012300000921B68114A8521002000F08DFA00BF42
:101240000837BD4680BD00BFA0020020000200207C
:10125000C0000020E8010020F4670008E40200203C
:10126000D4670008F8020020E46700080C0300209F
:1012700004680008200300201468000834030020DC
:101280000000002080B400AF72B600BFFEE700008F
:1012900080B582B000AF0346FB71002280210C486C
:1012A00002F026F800224FF48071094802F020F87D
:1012B000F91D4FF0FF330122064802F014FD012210
:1012C0008021034802F014F800BF0837BD4680BDF6
:1012D00000040240E800002080B584B000AF7860D0
:1012E000396000228021164802F002F801224FF4F2
:1012F0008071134801F0FCFF15E03B684FF6FF7268
:10130000934228BF1346FB81FA894FF0FF33796877
:101310000C4802F0E8FCFB897A6813447B60FB8987
:101320003A68D31A3B603B68002BE6D1012280214A
:10133000034801F0DDFF00BF1037BD4680BD00BF90
:1013400000040240E800002080B582B000AF0346F0
:10135000FB71002280210C4801F0CAFF01224FF4EA
:101360008071094801F0C4FFF91D4FF0FF330122DD
:10137000064802F0B8FC01228021034801F0B8FFC2
:1013800000BF0837BD4680BD00040240E8000020D1
:1013900080B582B000AF0346FB713620FFF778FFBF
:1013A000FB79032B1AD801A252F823F0BD130008D1
:1013B000C5130008CD130008D5130008C020FFF79F
:1013C000C3FF0CE0A020FFF7BFFF08E00020FFF7FD
:1013D000BBFF04E06020FFF7B7FF00E000BF00BFE5
:1013E0000837BD4680BD00BF90B587B000AF04464A
:1013F000084611461A462346FB800346BB800B462F
:101400007B8013463B8000228021244801F070FF3E
:10141000FB88FB827B88BB82BB887B823B883B82CC
:101420002A20FFF735FFFB8A1B0A9BB2DBB23B7316
:10143000FB8ADBB27B73BB8A1B0A9BB2DBB2BB733A
:10144000BB8ADBB2FB7307F10C0304211846FFF7DC
:1014500043FF2B20FFF71CFF7B8A1B0A9BB2DBB2EA
:101460003B727B8ADBB27B723B8A1B0A9BB2DBB28C
:10147000BB723B8ADBB2FB7207F1080304211846FA
:10148000FFF72AFF2C20FFF703FF012280210348EA
:1014900001F02EFF00BF1C37BD4690BD0004024086
:1014A00090B58BB000AF192000F066FD002204213A
:1014B000464801F01DFF192000F05EFD01220421C5
:1014C000424801F015FF322000F056FD3A20FFF7A8
:1014D000DFFE5520FFF738FFB220FFF7D9FE3C4A68
:1014E00007F1200392E8030018600433197007F134
:1014F000200305211846FFF7EFFE0120FFF748FF04
:10150000B720FFF7C5FE3520FFF71EFFBB20FFF712
:10151000BFFE1920FFF718FFC020FFF7B9FE2C20EF
:10152000FFF712FFC220FFF7B3FE0120FFF70CFF09
:10153000C320FFF7ADFE1220FFF706FFC420FFF720
:10154000A7FE2020FFF700FFC620FFF7A1FE0F2017
:10155000FFF7FAFED020FFF79BFEA420FFF7F4FE72
:10156000A120FFF7F1FEE020FFF792FE194B07F1F3
:1015700010040FCB07C4238007F110030E21184677
:10158000FFF7AAFEE120FFF783FE134B3C460FCB8B
:1015900007C423803B460E211846FFF79DFE2120FD
:1015A000FFF776FE1120FFF773FE1320FFF770FEA2
:1015B0002920FFF76DFE322000F0DEFC4FF6FF70B1
:1015C00000F00CF800BF2C37BD4690BD000402406F
:1015D000246800082C6800083C68000880B584B0C6
:1015E00000AF0346FB8040F23F13EF2200210020B2
:1015F000FFF7FAFE00228021164801F079FE002351
:10160000FB811AE00023BB8110E0FB881B0A9BB220
:10161000DBB23B72FB88DBB27B7207F1080302216D
:101620001846FFF759FEBB890133BB81BB89B3F56F
:10163000A07FEAD3FB890133FB81FB89EF2BE1D942
:1016400001228021034801F053FE00BF1037BD4640
:1016500080BD00BF0004024082B090B589B000AFE9
:101660007B630346FB800B46BB801346FB70002266
:101670008021384801F03CFE97F834309AB2FB885C
:1016800013449BB2013B9CB297F835309AB2BB88A9
:1016900013449BB2013B9BB2B988F8882246FFF7FE
:1016A000A3FE0023FB6143E0BA6BFB78203B97F875
:1016B000351001FB03F31946FB690B445B0013442F
:1016C0001B887B610023BB6129E07A69BB6902FA50
:1016D00003F303F40043002B0ED0BB8F1B0A9BB215
:1016E000DBB23B74BB8FDBB27B7407F110030221CA
:1016F0001846FFF7F1FD0FE0B7F840301B0A9BB228
:10170000DBB23B73B7F84030DBB27B7307F10C03FD
:1017100002211846FFF7E0FDBB690133BB6197F872
:1017200034301A46BB699342CFD3FB690133FB6166
:1017300097F835301A46FB699342B5D301228021D0
:10174000044801F0D5FD00BF2437BD46BDE89040F8
:1017500002B070470004024082B080B586B004AF8A
:101760003A607B610346FB800B46BB8000228021F0
:10177000224801F0BDFD2EE0FB883A7D1344EF2B9B
:1017800014DD0023FB807B7D9AB2BB881344BB80B1
:10179000BB887A7D1344B3F5A07F21DA3B681B78C0
:1017A000202B03D13B6801333B6014E03B681A787F
:1017B000B988F8883B8C0293BB8B0193BB6900937B
:1017C0007B69FFF749FF3B7D9AB2FB881344FB809E
:1017D0003B6801333B603B681B78002BCCD100E0B9
:1017E00000BF01228021054801F082FD00BF0837BB
:1017F000BD46BDE8804002B0704700BF0004024013
:1018000080B483B000AF00237B60104B5B6C0F4A49
:1018100043F4804353640D4B5B6C03F480437B6063
:101820007B6800233B60094B1B6C084A43F08053E4
:101830001364064B1B6C03F080533B603B6800BF96
:101840000C37BD465DF8047B704700BF003802408E
:1018500080B58CB000AF786007F11C0300221A60DD
:101860005A609A60DA601A617B681B684A4A934240
:101870003ED14A4B1B680133484A1360474B1B68F3
:10188000012B0DD10023BB61454B1B6C444A43F037
:1018900000731364424B1B6C03F00073BB61BB69A4
:1018A00000237B613E4B1B6B3D4A43F001031363F6
:1018B0003B4B1B6B03F001037B617B694FF4C0530F
:1018C000FB6102233B6200237B620323BB6209238B
:1018D000FB6207F11C031946324801F06DFB002240
:1018E0000021142001F09FFA142001F0B8FA4FE013
:1018F0007B681B682C4A93424AD100233B61284BEA
:101900001B6C274A43F080631364254B1B6C03F068
:1019100080633B613B69214B1B6801331F4A1360A5
:101920001E4B1B68012B0DD10023FB601C4B1B6C55
:101930001B4A43F000731364194B1B6C03F00073D4
:10194000FB60FB680023BB60154B1B6B144A43F024
:1019500002031363124B1B6B03F00203BB60BB68F3
:101960006023FB6102233B6200237B620323BB6293
:101970000923FB6207F11C0319460C4801F01CFB0C
:1019800000220021412001F04EFA412001F067FAC7
:1019900000BF3037BD4680BD0064004048030020D2
:1019A000003802400000024000680040000402408D
:1019B00080B58AB000AF786007F1140300221A6086
:1019C0005A609A60DA601A617B681B68284A934201
:1019D00049D100233B61274B5B6C264A43F480537B
:1019E0005364244B5B6C03F480533B613B690023DD
:1019F000FB60204B1B6B1F4A43F0010313631D4B1D
:101A00001B6B03F00103FB60FB680023BB60194BF9
:101A10001B6B184A43F002031363164B1B6B03F056
:101A20000203BB60BB68C0237B610223BB61002350
:101A3000FB6103233B6205237B6207F11403194614
:101A40000D4801F0B9FA08237B610223BB61002332
:101A5000FB6103233B6205237B6207F114031946F4
:101A6000064801F0A9FA00BF2837BD4680BD00BF77
:101A700000300140003802400000024000040240F3
:101A800080B584B000AF78607B681B68B3F1804F8D
:101A900015D10023FB600C4B1B6C0B4A43F0010378
:101AA0001364094B1B6C03F00103FB60FB6800220D
:101AB00000211C2001F0B7F91C2001F0D0F900BF73
:101AC0001037BD4680BD00BF0038024080B58AB0E7
:101AD00000AF786007F1140300221A605A609A6020
:101AE000DA601A617B681B681D4A934233D1002378
:101AF0003B611C4B1B6C1B4A43F400331364194BB2
:101B00001B6C03F400333B613B690023FB60154B06
:101B10001B6B144A43F001031363124B1B6B03F05E
:101B20000103FB60FB680C237B610223BB61002384
:101B3000FB6103233B6207237B6207F11403194611
:101B4000094801F039FA00220021262001F06BF942
:101B5000262001F084F900BF2837BD4680BD00BFB4
:101B600000440040003802400000024080B400AF52
:101B7000FEE780B400AFFEE780B400AFFEE780B4BC
:101B800000AFFEE780B400AFFEE780B400AF00BF57
:101B9000BD465DF8047B704780B400AF00BFBD4612
:101BA0005DF8047B704780B400AF00BFBD465DF8B0
:101BB000047B704780B500AF00F0BEF900BF80BD68
:101BC00080B500AF024800F02EFE00BF80BD00BF10
:101BD0009800002080B500AF024802F071FE00BFFF
:101BE00080BD00BF4001002080B500AF024803F077
:101BF00077FA00BF80BD00BF8801002080B500AF2C
:101C0000024800F010FE00BF80BD00BFC0000020F1
:101C100080B586B000AF7860144A154BD31A7B614B
:101C20007B693B61134B1B68002B02D1114B124A9D
:101C30001A60104B1A687B6813443A699A4207D2BB
:101C400004F014F903460C221A604FF0FF3309E048
:101C5000084B1B68FB60074B1A687B681344054AF6
:101C60001360FB6818461837BD4680BD000002208F
:101C7000000400004C030020B003002080B400AF3B
:101C8000064BD3F88830054A43F47003C2F8883015
:101C900000BFBD465DF8047B704700BF00ED00E06B
:101CA00080B483B000AF7860054A7B681360054B51
:101CB00000221A6000BF0C37BD465DF8047B7047F8
:101CC000500300205403002080B400AF4A4B1B682F
:101CD000002B0BDD484B1B68013B474A1360464B0A
:101CE0001B68002B02DC454B01221A60444B1B6829
:101CF000002B0BDD424B1B68013B414A1360404BFC
:101D00001B68002B02DC3F4B01221A603E4B1B6814
:101D1000002B0BDD3C4B1B68013B3B4A13603A4BED
:101D20001B68002B02DC394B01221A60384B1B6800
:101D3000002B0BDD364B1B68013B354A1360344BDF
:101D40001B68002B02DC334B01221A60324B1B68EC
:101D5000002B0BDD304B1B68013B2F4A13602E4BD1
:101D60001B68002B02DC2D4B01221A602C4B1B68D8
:101D7000002B0BDD2A4B1B68013B294A1360284BC3
:101D80001B68002B02DC274B01221A60264B1B68C4
:101D9000002B0BDD244B1B68013B234A1360224BB5
:101DA0001B68002B02DC214B01221A60204B1B68B0
:101DB000002B0BDD1E4B1B68013B1D4A13601C4BA7
:101DC0001B68002B02DC1B4B01221A601A4B1B689C
:101DD000002B0BDD184B1B68013B174A1360164B99
:101DE0001B68002B02DC154B01221A6000BFBD46A8
:101DF0005DF8047B704700BF5003002054030020AF
:101E0000580300205C0300206003002064030020CE
:101E1000680300206C03002070030020740300207E
:101E2000780300207C03002080030020840300202E
:101E3000880300208C0300209003002094030020DE
:101E4000DFF834D00D480E490E4A002302E0D45882
:101E5000C4500433C4188C42F9D30B4A0B4C0023F2
:101E600001E013600432A242FBD3FFF707FF04F046
:101E700003F8FEF76DFE704700000220000000200E
:101E8000780000207476000878000020AC03002061
:101E9000FEE7000080B500AF0E4B1B680D4A43F40F
:101EA000007313600B4B1B680A4A43F48063136092
:101EB000084B1B68074A43F480731360032000F04B
:101EC000A7FF0F2000F008F8FFF79AFC0023184640
:101ED00080BD00BF003C024080B582B000AF78609A
:101EE000124B1A68124B1B7819464FF47A73B3FBE6
:101EF000F1F3B2FBF3F3184600F0BFFF0346002BEB
:101F000001D001230EE07B680F2B0AD800227968EC
:101F10004FF0FF3000F087FF064A7B681360002314
:101F200000E0012318460837BD4680BD08000020A8
:101F3000100000200C00002080B400AF064B1B787E
:101F40001A46064B1B681344044A136000BFBD4683
:101F50005DF8047B704700BF10000020980300204C
:101F600080B400AF034B1B681846BD465DF8047B88
:101F7000704700BF9803002080B584B000AF786040
:101F8000FFF7EEFFB8607B68FB60FB68B3F1FF3FD3
:101F900005D00A4B1B781A46FB681344FB6000BF50
:101FA000FFF7DEFF0246BB68D31AFA689A42F7D8F9
:101FB00000BF00BF1037BD4680BD00BF100000202D
:101FC00080B584B000AF78607B68002B01D101231D
:101FD000EDE07B6893F82030DBB2002B02D178680B
:101FE000FFF736FC7B681B681A687B681B6842F049
:101FF00001021A60FFF7B4FFF86012E0FFF7B0FFCC
:102000000246FB68D31A0A2B0BD97B685B6A43F440
:1020100000327B685A627B68052283F82020012306
:10202000C5E07B681B685B6803F00103002BE5D00B
:102030007B681B681A687B681B6822F002021A60C2
:10204000FFF78EFFF86012E0FFF78AFF0246FB6899
:10205000D31A0A2B0BD97B685B6A43F400327B6886
:102060005A627B68052283F8202001239FE07B6869
:102070001B685B6803F00203002BE5D17B681B7EC5
:10208000012B08D17B681B681A687B681B6842F0CB
:1020900080021A6007E07B681B681A687B681B680F
:1020A00022F080021A607B685B7E012B08D17B687E
:1020B0001B681A687B681B6842F040021A6007E0E0
:1020C0007B681B681A687B681B6822F040021A60F4
:1020D0007B689B7E012B08D17B681B681A687B6834
:1020E0001B6842F020021A6007E07B681B681A68D0
:1020F0007B681B6822F020021A607B68DB7E012B64
:1021000008D17B681B681A687B681B6822F0100284
:102110001A6007E07B681B681A687B681B6842F0DE
:1021200010021A607B681B7F012B08D17B681B683B
:102130001A687B681B6842F008021A6007E07B6837
:102140001B681A687B681B6822F008021A607B68AB
:102150005B7F012B08D17B681B681A687B681B6852
:1021600042F004021A6007E07B681B681A687B680B
:102170001B6822F004021A607B689A687B68DB683F
:102180001A437B681B691A437B685B6942EA030157
:102190007B685B685A1E7B681B680A43DA617B6850
:1021A00000225A627B68012283F82020002318460F
:1021B0001037BD4680BD000080B487B000AF7860A6
:1021C00039607B681B687B617B6893F82030FB7407
:1021D000FB7C012B03D0FB7C022B40F0BE80654BC7
:1021E0007B617B69D3F8003243F001027B69C3F85D
:1021F00000227B69D3F8003223F47C527B69C3F858
:1022000000227B69D3F800223B685B6A1B021A43F9
:102210007B69C3F800223B685B6903F01F0301225E
:1022200002FA03F3FB607B69D3F81C22FB68DB43F3
:102230001A407B69C3F81C223B68DB69002B23D161
:102240007B69D3F80C22FB68DB431A407B69C3F837
:102250000C223B68DB6819043B685B689BB23A68F8
:10226000526919437B69483243F832103B689B68D6
:1022700019043B681B689AB23B685B690A43796939
:102280004833DB000B445A603B68DB69012B22D1E9
:102290007B69D3F80C22FB681A437B69C3F80C22D4
:1022A0003B681B6819043B685B689BB23A685269DB
:1022B00019437B69483243F832103B689B68190424
:1022C0003B68DB689AB23B685B690A4379694833CB
:1022D000DB000B445A603B689B69002B09D17B698A
:1022E000D3F80422FB68DB431A407B69C3F804225D
:1022F00007E07B69D3F80422FB681A437B69C3F8C3
:1023000004223B681B69002B09D17B69D3F8142296
:10231000FB68DB431A407B69C3F8142207E07B6942
:10232000D3F81422FB681A437B69C3F814223B6874
:102330001B6A012B07D17B69D3F81C22FB681A4367
:102340007B69C3F81C227B69D3F8003223F00102B9
:102350007B69C3F80022002306E07B685B6A43F4D4
:1023600080227B685A62012318461C37BD465DF8FF
:10237000047B70470064004080B584B000AF786093
:102380007B6893F82030DBB2012B2ED17B680222D0
:1023900083F820207B681B681A687B681B6822F022
:1023A00001021A60FFF7DCFDF86012E0FFF7D8FDCC
:1023B0000246FB68D31A0A2B0BD97B685B6A43F48D
:1023C00000327B685A627B68052283F82020012353
:1023D00012E07B681B685B6803F00103002BE5D10A
:1023E0007B6800225A62002306E07B685B6A43F444
:1023F00000227B685A62012318461037BD4680BD13
:1024000080B489B000AFF860B9607A603B60FB6867
:1024100093F82030FB77FB681B689B68BB61FB7FF0
:10242000012B03D0FB7F022B40F0B880BB6903F087
:102430008063002B0AD1BB6903F00063002B05D138
:10244000BB6903F08053002B00F0A080BB691B0E1A
:1024500003F003037B617B69022B07D9FB685B6A8E
:1024600043F40002FB685A6201239EE001227B696B
:102470009A403B681A60BB689B68002B0DD1BB6813
:102480001B685A05BB68DB68F96809681A437B69F1
:1024900018331B010B441A600FE0BB685B68DA005D
:1024A000BB689B681A43BB68DB68F96809681A4314
:1024B0007B6918331B010B441A60FB681968BB6801
:1024C0001A697B6918331B010B4404331A60BB681B
:1024D0001B7D012B11D1FB681A687B6918331B0126
:1024E000134404331B68FA68116843F480727B69F3
:1024F00018331B010B4404331A607B6807331B78C5
:102500001A067B6806331B781B041A437B68053365
:102510001B781B0213437A68043212781046FA685B
:10252000116843EA00027B691B010B4403F5C67383
:102530001A607B6803331B781A067B6802331B78AA
:102540001B041A437B6801331B781B0213437A6810
:1025500012781046FA68116843EA00027B691B0191
:102560000B4403F5C4731A60FB681A687B6918335F
:102570001B0113441B68FA68116843F001027B6970
:1025800018331B010B441A6000230EE0FB685B6AE2
:1025900043F40012FB685A62012306E0FB685B6AA1
:1025A00043F48022FB685A62012318462437BD4653
:1025B0005DF8047B704780B487B000AFF860B96005
:1025C0007A603B60FB6893F82030FB75FB7D012B44
:1025D00003D0FB7D022B40F0F380BB68002B0ED1B3
:1025E000FB681B68DB6803F00303002B16D1FB6854
:1025F0005B6A43F40012FB685A620123E7E0FB6860
:102600001B681B6903F00303002B07D1FB685B6A9F
:1026100043F40012FB685A620123D8E0FB681A6891
:10262000BB681B331B0113441B6803F004027B6867
:102630009A607B689B68002B0CD1FB681A68BB68AA
:102640001B331B0113441B685B0DC3F30A027B6839
:102650001A600BE0FB681A68BB681B331B0113444C
:102660001B68DB0823F060427B685A60FB681A68CD
:10267000BB681B331B0113441B6803F002027B6819
:10268000DA60FB681A68BB681B331B011344043310
:102690001B6803F00F027B681A61FB681A68BB684D
:1026A0001B331B01134404331B681B0ADAB27B681B
:1026B0009A61FB681A68BB681B331B01134404331F
:1026C0001B681B0C9AB27B685A61FB681A68BB686E
:1026D0001B01134403F5DC731B68DAB23B681A7004
:1026E000FB681A68BB681B01134403F5DC731B68A5
:1026F0001A0A3B680133D2B21A70FB681A68BB68C9
:102700001B01134403F5DC731B681A0C3B6802338E
:10271000D2B21A70FB681A68BB681B01134403F538
:10272000DC731B681A0E3B680333D2B21A70FB6865
:102730001A68BB681B01134403F5DE731A683B6813
:102740000433D2B21A70FB681A68BB681B011344C9
:1027500003F5DE731B681A0A3B680533D2B21A70A0
:10276000FB681A68BB681B01134403F5DE731B6822
:102770001A0C3B680633D2B21A70FB681A68BB6841
:102780001B01134403F5DE731B681A0E3B68073305
:10279000D2B21A70BB68002B08D1FB681B68DA68DC
:1027A000FB681B6842F02002DA6007E0FB681B68E8
:1027B0001A69FB681B6842F020021A61002306E0D8
:1027C000FB685B6A43F48022FB685A620123184667
:1027D0001C37BD465DF8047B704780B485B000AF00
:1027E000786039607B6893F82030FB73FB7B012BAA
:1027F00002D0FB7B022B09D17B681B6859697B687F
:102800001B683A680A435A61002306E07B685B6AEA
:1028100043F480227B685A62012318461437BD4670
:102820005DF8047B704780B58AB000AF7860002304
:102830007B627B681B685B693B627B681B685B68CB
:10284000FB617B681B689B68BB617B681B68DB68FE
:102850007B617B681B681B693B617B681B689B69AC
:10286000FB603B6A03F00103002B7CD0BB6903F0E3
:102870000103002B23D07B681B6801229A60BB698F
:1028800003F00203002B03D0786800F083F916E010
:10289000BB6903F00403002B04D07B6A43F400639C
:1028A0007B620CE0BB6903F00803002B04D07B6A59
:1028B00043F480537B6202E0786800F089F9BB69D9
:1028C00003F48073002B24D07B681B684FF4807264
:1028D0009A60BB6903F40073002B03D0786800F0A2
:1028E00063F916E0BB6903F48063002B04D07B6AB4
:1028F00043F400537B620CE0BB6903F40063002BDC
:1029000004D07B6A43F480437B6202E0786800F085
:1029100069F9BB6903F48033002B24D07B681B6802
:102920004FF480329A60BB6903F40033002B03D06C
:10293000786800F043F916E0BB6903F48023002BAC
:1029400004D07B6A43F400437B620CE0BB6903F470
:102950000023002B04D07B6A43F480337B6202E0C7
:10296000786800F049F93B6A03F00803002B0CD0AB
:102970007B6903F01003002B07D07B6A43F40073DC
:102980007B627B681B681022DA603B6A03F00403F9
:10299000002B0BD07B6903F00803002B06D07B686B
:1029A0001B680822DA60786800F030F93B6A03F0AF
:1029B0000203002B09D07B681B68DB6803F003036C
:1029C000002B02D07868FEF737FB3B6A03F0400328
:1029D000002B0CD03B6903F01003002B07D07B6A5F
:1029E00043F480637B627B681B6810221A613B6A38
:1029F00003F02003002B0BD03B6903F00803002BEE
:102A000006D07B681B6808221A61786800F008F914
:102A10003B6A03F01003002B09D07B681B681B691D
:102A200003F00303002B02D07868FEF789FB3B6AB2
:102A300003F40033002B0BD0FB6903F01003002BD1
:102A400006D07B681B6810225A60786800F0F2F8A4
:102A50003B6A03F48033002B0BD0FB6903F00803BF
:102A6000002B06D07B681B6808225A60786800F04B
:102A7000EBF83B6A03F40043002B7BD0FB6903F0C7
:102A80000403002B72D03B6A03F48073002B08D040
:102A9000FB6803F00103002B03D07B6A43F00103C2
:102AA0007B623B6A03F40073002B08D0FB6803F0E1
:102AB0000203002B03D07B6A43F002037B623B6A74
:102AC00003F48063002B08D0FB6803F00403002BA1
:102AD00003D07B6A43F004037B623B6A03F4006328
:102AE000002B43D0FB6803F07003002B3ED0FB6843
:102AF00003F07003602B2BD0602B2ED8502B22D0EC
:102B0000502B2AD8402B19D0402B26D8302B10D050
:102B1000302B22D8102B02D0202B05D01DE07B6A51
:102B200043F008037B6219E07B6A43F010037B6289
:102B300014E07B6A43F020037B620FE07B6A43F082
:102B400040037B620AE07B6A43F080037B6205E01E
:102B50007B6A43F480737B6200E000BF7B681B6884
:102B60009A697B681B6822F070029A617B681B6817
:102B700004225A607B6A002B08D07B685A6A7B6A01
:102B80001A437B685A62786800F068F800BF2837FB
:102B9000BD4680BD80B483B000AF786000BF0C3705
:102BA000BD465DF8047B704780B483B000AF7860A9
:102BB00000BF0C37BD465DF8047B704780B483B01E
:102BC00000AF786000BF0C37BD465DF8047B7047EE
:102BD00080B483B000AF786000BF0C37BD465DF8AD
:102BE000047B704780B483B000AF786000BF0C37BF
:102BF000BD465DF8047B704780B483B000AF786059
:102C000000BF0C37BD465DF8047B704780B483B0CD
:102C100000AF786000BF0C37BD465DF8047B70479D
:102C200080B483B000AF786000BF0C37BD465DF85C
:102C3000047B704780B483B000AF786000BF0C376E
:102C4000BD465DF8047B704780B483B000AF786008
:102C500000BF0C37BD465DF8047B704780B483B07D
:102C600000AF786000BF0C37BD465DF8047B70474D
:102C700080B485B000AF78607B6803F00703FB6029
:102C80000C4BDB68BB60BA684FF6FF031340BB60B8
:102C9000FB681A02BB68134343F0BF6343F400337D
:102CA000BB60044ABB68D36000BF1437BD465DF803
:102CB000047B704700ED00E080B400AF044BDB689C
:102CC0001B0A03F007031846BD465DF8047B7047F6
:102CD00000ED00E080B483B000AF0346FB7197F9CC
:102CE0000730002B0BDBFB7903F01F02074997F934
:102CF00007305B09012000FA02F241F8232000BFEF
:102D00000C37BD465DF8047B704700BF00E100E072
:102D100080B483B000AF03463960FB7197F9073088
:102D2000002B0ADB3B68DAB20C4997F90730120135
:102D3000D2B20B4483F800230AE03B68DAB20849B8
:102D4000FB7903F00F03043B1201D2B20B441A7655
:102D500000BF0C37BD465DF8047B704700E100E022
:102D600000ED00E080B489B000AFF860B9607A602F
:102D7000FB6803F00703FB61FB69C3F10703042B46
:102D800028BF0423BB61FB690433062B02D9FB690E
:102D9000033B00E000237B614FF0FF32BB6902FA86
:102DA00003F3DA43BB681A407B699A404FF0FF3166
:102DB0007B6901FA03F3D9437B680B401343184640
:102DC0002437BD465DF8047B7047000080B582B0B3
:102DD00000AF78607B68013BB3F1807F01D30123B2
:102DE0000FE00A4A7B68013B53600F214FF0FF3030
:102DF000FFF78EFF054B00229A60044B07221A60F2
:102E0000002318460837BD4680BD00BF10E000E033
:102E100080B582B000AF78607868FFF729FF00BF07
:102E20000837BD4680BD80B586B000AF0346B960A7
:102E30007A60FB7300237B61FFF73EFF78617A685D
:102E4000B9687869FFF78EFF024697F90F3011468F
:102E50001846FFF75DFF00BF1837BD4680BD80B53F
:102E600082B000AF0346FB7197F907301846FFF7B1
:102E700031FF00BF0837BD4680BD80B582B000AFCE
:102E800078607868FFF7A2FF034618460837BD460A
:102E900080BD80B584B000AF78607B689B6DFB60BF
:102EA000FFF75EF8B8607B6893F83530DBB2022B31
:102EB00008D07B6880225A657B68002283F8342022
:102EC000012352E07B681B681A687B681B6822F04C
:102ED00016021A607B681B685A697B681B6822F0BF
:102EE00080025A617B681B6C002B03D17B689B6C52
:102EF000002B07D07B681B681A687B681B6822F070
:102F000008021A607B681B681A687B681B6822F0DD
:102F100001021A6013E0FFF723F80246BB68D31AD8
:102F2000052B0CD97B6820225A657B68032283F825
:102F300035207B68002283F83420032315E07B686A
:102F40001B681B6803F00103002BE4D17B68DB6D79
:102F50003F229A40FB689A607B68012283F8352003
:102F60007B68002283F83420002318461037BD46C2
:102F700080BD80B483B000AF78607B6893F8353053
:102F8000DBB2022B04D07B6880225A6501230CE05F
:102F90007B68052283F835207B681B681A687B688C
:102FA0001B6822F001021A60002318460C37BD4648
:102FB0005DF8047B7047000080B489B000AF786092
:102FC000396000237B6100233B610023BB61002348
:102FD000FB616BE10122FB6902FA03F37B613B6851
:102FE0001B687A6913403B613A697B699A4240F0F9
:102FF0005A813B685B6803F00303012B05D03B68F3
:103000005B6803F00303022B30D17B689B68BB61D4
:10301000FB695B00032202FA03F3DB43BA69134046
:10302000BB613B68DA68FB695B0002FA03F3BA69CB
:103030001343BB617B68BA699A607B685B68BB615C
:103040000122FB6902FA03F3DB43BA691340BB6157
:103050003B685B681B0903F00102FB6902FA03F39A
:10306000BA691343BB617B68BA695A603B685B68A5
:1030700003F00303032B17D07B68DB68BB61FB699C
:103080005B00032202FA03F3DB43BA691340BB611E
:103090003B689A68FB695B0002FA03F3BA69134361
:1030A000BB617B68BA69DA603B685B6803F0030365
:1030B000022B23D1FB69DA087B68083253F82230EF
:1030C000BB61FB6903F007039B000F2202FA03F3C5
:1030D000DB43BA691340BB613B681A69FB6903F0C3
:1030E00007039B0002FA03F3BA691343BB61FB6950
:1030F000DA087B680832B96943F822107B681B68DC
:10310000BB61FB695B00032202FA03F3DB43BA698C
:103110001340BB613B685B6803F00302FB695B0023
:1031200002FA03F3BA691343BB617B68BA691A6098
:103130003B685B6803F44033002B00F0B48000234D
:10314000FB60604B5B6C5F4A43F4804353645D4BB0
:103150005B6C03F48043FB60FB685B4AFB699B0884
:10316000023352F82330BB61FB6903F003039B0079
:103170000F2202FA03F3DB43BA691340BB617B6899
:10318000524A93422BD07B68514A934225D07B68A8
:10319000504A93421FD07B684F4A934219D07B68B4
:1031A0004E4A934213D07B684D4A93420DD07B68C0
:1031B0004C4A934207D07B684B4A934201D1072384
:1031C0000EE008230CE006230AE0052308E00423B0
:1031D00006E0032304E0022302E0012300E00023D1
:1031E000FA6902F0030292009340BA691343BB618B
:1031F0003549FB699B080233BA6941F823203B4BF0
:103200009B68BB613B69DB43BA691340BB613B68A8
:103210005B6803F48013002B03D0BA693B69134346
:10322000BB61324ABB699360304BDB68BB613B6971
:10323000DB43BA691340BB613B685B6803F400136E
:10324000002B03D0BA693B691343BB61274ABB69B2
:10325000D360264B5B68BB613B69DB43BA691340B3
:10326000BB613B685B6803F40033002B03D0BA6991
:103270003B691343BB611D4ABB6953601B4B1B6811
:10328000BB613B69DB43BA691340BB613B685B6868
:1032900003F48033002B03D0BA693B691343BB614D
:1032A000124ABB691360FB690133FB61FB690F2B99
:1032B0007FF690AE00BF00BF2437BD465DF8047BAB
:1032C000704700BF00380240003801400000024053
:1032D0000004024000080240000C024000100240BE
:1032E0000014024000180240001C0240003C014053
:1032F00080B483B000AF78600B467B8013467B7050
:103300007B78002B03D07A887B689A6103E07B8806
:103310001A047B689A6100BF0C37BD465DF8047BD8
:103320007047000080B586B000AF78607B68002BE6
:1033300001D1012367E27B681B6803F00103002BC6
:1033400075D0884B9B6803F00C03042B0CD0854B85
:103350009B6803F00C03082B12D1824B5B6803F4CB
:103360008003B3F5800F0BD17E4B1B6803F4003351
:10337000002B5BD07B685B68002B57D1012342E2B6
:103380007B685B68B3F5803F06D1764B1B68754A56
:1033900043F4803313601DE07B685B68B3F5A02FB6
:1033A0000CD1704B1B686F4A43F4802313606D4B44
:1033B0001B686C4A43F4803313600BE0694B1B6855
:1033C000684A23F480331360664B1B68654A23F414
:1033D000802313607B685B68002B13D0FEF7C0FD71
:1033E000386108E0FEF7BCFD02463B69D31A642B46
:1033F00001D9032307E25B4B1B6803F40033002B66
:10340000F0D014E0FEF7ACFD386108E0FEF7A8FD4F
:1034100002463B69D31A642B01D90323F3E1514BD4
:103420001B6803F40033002BF0D100E000BF7B6881
:103430001B6803F00203002B63D04A4B9B6803F028
:103440000C03002B0BD0474B9B6803F00C03082B9D
:103450001CD1444B5B6803F48003002B16D1414B15
:103460001B6803F00203002B05D07B68DB68012B8F
:1034700001D00123C7E13B4B1B6823F0F8027B68B6
:103480001B69DB00374913430B603AE07B68DB685C
:10349000002B20D0344B01221A60FEF761FD386109
:1034A00008E0FEF75DFD02463B69D31A022B01D905
:1034B0000323A8E12B4B1B6803F00203002BF0D081
:1034C000284B1B6823F0F8027B681B69DB00254949
:1034D00013430B6015E0244B00221A60FEF740FDF9
:1034E000386108E0FEF73CFD02463B69D31A022B27
:1034F00001D9032387E11B4B1B6803F00203002B58
:10350000F0D17B681B6803F00803002B36D07B6882
:103510005B69002B16D0154B01221A60FEF720FDC7
:10352000386108E0FEF71CFD02463B69D31A022B06
:1035300001D9032367E10B4B5B6F03F00203002B00
:10354000F0D01BE0094B00221A60FEF709FD38613C
:103550000EE0FEF705FD02463B69D31A022B07D9A0
:10356000032350E10038024000004742800E4742EA
:10357000884B5B6F03F00203002BEAD17B681B686A
:1035800003F00403002B00F097800023FB75814BB0
:103590001B6C03F08053002B0FD10023BB607D4BCD
:1035A0001B6C7C4A43F0805313647A4B1B6C03F012
:1035B0008053BB60BB680123FB75774B1B6803F42A
:1035C0008073002B18D1744B1B68734A43F48073CB
:1035D0001360FEF7C5FC386108E0FEF7C1FC024647
:1035E0003B69D31A022B01D903230CE16A4B1B68F8
:1035F00003F48073002BF0D07B689B68012B06D10D
:10360000644B1B6F634A43F0010313671CE07B6844
:103610009B68052B0CD15F4B1B6F5E4A43F0040384
:1036200013675C4B1B6F5B4A43F0010313670BE0AE
:10363000584B1B6F574A23F001031367554B1B6F01
:10364000544A23F0040313677B689B68002B15D052
:10365000FEF786FC38610AE0FEF782FC02463B6911
:10366000D31A41F28832934201D90323CBE0494B6C
:103670001B6F03F00203002BEED014E0FEF770FC8A
:1036800038610AE0FEF76CFC02463B69D31A41F24E
:103690008832934201D90323B5E03E4B1B6F03F000
:1036A0000203002BEED1FB7D012B05D1394B1B6CA6
:1036B000384A23F0805313647B689B69002B00F029
:1036C000A180344B9B6803F00C03082B5CD07B6813
:1036D0009B69022B41D1314B00221A60FEF740FC5E
:1036E000386108E0FEF73CFC02463B69D31A022B26
:1036F00001D9032387E0274B1B6803F00073002BDD
:10370000F0D17B68DA697B681B6A1A437B685B6A65
:103710009B011A437B689B6A5B08013B1B041A43AD
:103720007B68DB6A1B061B4913434B601B4B012262
:103730001A60FEF715FC386108E0FEF711FC02463E
:103740003B69D31A022B01D903235CE0114B1B68A0
:1037500003F00073002BF0D054E0104B00221A60ED
:10376000FEF7FEFB386108E0FEF7FAFB02463B6914
:10377000D31A022B01D9032345E0064B1B6803F043
:103780000073002BF0D13DE07B689B69012B07D1D2
:10379000012338E0003802400070004060004742DA
:1037A0001B4B5B68FB607B689B69012B28D0FB6827
:1037B00003F480027B68DB699A4221D1FB6803F045
:1037C0003F027B681B6A9A421AD1FA6847F6C073B7
:1037D00013407A68526A9201934211D1FB6803F454
:1037E00040327B689B6A5B08013B1B049A4207D10D
:1037F000FB6803F070627B68DB6A1B069A4201D0AB
:10380000012300E0002318461837BD4680BD00BFE5
:103810000038024080B584B000AF786039607B68C2
:10382000002B01D10123CCE0684B1B6803F0070398
:103830003A689A420CD9654B3A68D2B21A70634B17
:103840001B6803F007033A689A4201D00123B8E0ED
:103850007B681B6803F00203002B20D07B681B6889
:1038600003F00403002B05D0594B9B68584A43F4DE
:10387000E05393607B681B6803F00803002B05D0BE
:10388000534B9B68524A43F460439360504B9B6890
:1038900023F0F0027B689B684D4913438B607B6883
:1038A0001B6803F00103002B44D07B685B68012B8D
:1038B00007D1474B1B6803F40033002B19D10123B8
:1038C0007FE07B685B68022B03D07B685B68032B1F
:1038D00007D13F4B1B6803F00073002B09D1012374
:1038E0006FE03B4B1B6803F00203002B01D1012367
:1038F00067E0374B9B6823F003027B685B683449C1
:1039000013438B60FEF72CFBF8600AE0FEF728FB00
:103910000246FB68D31A41F28832934201D903234D
:103920004FE02B4B9B6803F00C027B685B689B00AD
:103930009A42EBD1254B1B6803F007033A689A4281
:103940000CD2224B3A68D2B21A70204B1B6803F09B
:1039500007033A689A4201D0012332E07B681B6872
:1039600003F00403002B08D0194B9B6823F4E052AA
:103970007B68DB68164913438B607B681B6803F028
:103980000803002B09D0124B9B6823F460427B682C
:103990001B69DB000E4913438B6000F021F80246DF
:1039A0000B4B9B681B0903F00F030A49CB5C22FAFF
:1039B00003F3094A1360094B1B681846FEF78CFA9B
:1039C000002318461037BD4680BD00BF003C0240B2
:1039D0000038024018760008080000200C00002083
:1039E0002DE9B04F90B000AF00237B630023FB6351
:1039F00000233B630023BB63594B9B6803F00C031C
:103A0000082B0DD0082B00F2A180002B02D0042B34
:103A100003D09BE0534BBB639BE0534BBB6398E0ED
:103A20004F4B5B6803F03F037B634D4B5B6803F4D4
:103A30008003002B28D04A4B5B689B0900223B6225
:103A40007A623B6AC3F308000021474B03FB01F293
:103A5000002300FB03F31344434AA0FB0212FA6263
:103A60000A46BA62FA6A1344FB627B6B0022BB61AE
:103A7000FA61D7E90623D7E90A01FCF7F9FB024608
:103A80000B461346FB6353E0354B5B689B090022F2
:103A90003B617A613B69C3F3080A4FF0000B524661
:103AA0005B464FF000004FF00001590141EAD2613E
:103AB000500102460B46B2EB0A0863EB0B094FF0CC
:103AC00000024FF000034FEA891343EA98634FEA7C
:103AD0008812B2EB080463EB09054FF000024FF0C7
:103AE0000003EB0043EA5473E20014461D4614EB56
:103AF0000A033B6045EB0B037B604FF000024FF085
:103B00000003D7E9004529468B02214643EA915339
:103B100021468A02104619467B6B0022BB60FA6080
:103B2000D7E90223FCF7A4FB02460B461346FB63CE
:103B30000B4B5B681B0C03F0030301335B003B631F
:103B4000FA6B3B6BB2FBF3F3BB6302E0054BBB6369
:103B500000BFBB6B18464037BD46BDE8B08F00BF05
:103B6000003802400024F40040787D0180B400AFAA
:103B7000034B1B681846BD465DF8047B704700BFC9
:103B80000800002080B500AFFFF7F0FF0246054BAC
:103B90009B689B0A03F007030349CB5C22FA03F3FB
:103BA000184680BD003802402876000880B500AF76
:103BB000FFF7DCFF0246054B9B685B0B03F0070336
:103BC0000349CB5C22FA03F3184680BD003802405B
:103BD0002876000880B582B000AF78607B68002B43
:103BE00001D101237BE07B685B6A002B08D17B68F5
:103BF0005B68B3F5827F09D07B680022DA6105E05B
:103C00007B6800221A617B6800225A617B6800226F
:103C10009A627B6893F85130DBB2002B06D17B6847
:103C2000002283F850207868FDF7C2FE7B680222EC
:103C300083F851207B681B681A687B681B6822F038
:103C400040021A607B685B6803F482727B689B6841
:103C500003F404431A437B68DB6803F400631A43EC
:103C60007B681B6903F002031A437B685B6903F0FE
:103C700001031A437B689B6903F400731A437B6852
:103C8000DB6903F038031A437B681B6A03F0800387
:103C900042EA03017B689B6A03F400527B681B685D
:103CA0000A431A607B689B691B0C03F004017B6864
:103CB0005B6A03F010027B681B680A435A607B68EA
:103CC0001B68DA697B681B6822F40062DA617B6832
:103CD00000225A657B68012283F851200023184690
:103CE0000837BD4680BD80B588B000AFF860B960C8
:103CF0003B601346FB800023FB77FB6893F8503052
:103D0000012B01D1022326E1FB68012283F8502018
:103D1000FEF726F9B861FB88FB82FB6893F8513007
:103D2000DBB2012B02D00223FB770BE1BB68002B37
:103D300002D0FB88002B02D10123FB7702E1FB6854
:103D4000032283F85120FB6800225A65FB68BA6899
:103D50001A63FB68FA889A86FB68FA88DA86FB6839
:103D600000229A63FB6800229A87FB680022DA87A8
:103D7000FB6800225A64FB6800221A64FB689B6897
:103D8000B3F5004F0FD1FB681B681A68FB681B680E
:103D900022F040021A60FB681B681A68FB681B6807
:103DA00042F480421A60FB681B681B6803F0400302
:103DB000402B07D0FB681B681A68FB681B6842F041
:103DC00040021A60FB68DB68B3F5006F4BD1FB68FB
:103DD0005B68002B02D0FB8A012B3ED1FB681B6B7A
:103DE0001A88FB681B68DA60FB681B6B9A1CFB680F
:103DF0001A63FB68DB8E9BB2013B9AB2FB68DA86E2
:103E00002BE0FB681B689B6803F00203022B12D1B6
:103E1000FB681B6B1A88FB681B68DA60FB681B6B0E
:103E20009A1CFB681A63FB68DB8E9BB2013B9AB25B
:103E3000FB68DA8611E0FEF793F80246BB69D31AF5
:103E40003A689A4203D83B68B3F1FF3F02D13B681E
:103E5000002B02D10323FB7774E0FB68DB8E9BB25F
:103E6000002BCED14CE0FB685B68002B02D0FB8AB4
:103E7000012B40D1FB681A6BFB681B680C3312786E
:103E80001A70FB681B6B5A1CFB681A63FB68DB8E9D
:103E90009BB2013B9AB2FB68DA862CE0FB681B6898
:103EA0009B6803F00203022B13D1FB681A6BFB68BB
:103EB0001B680C3312781A70FB681B6B5A1CFB686A
:103EC0001A63FB68DB8E9BB2013B9AB2FB68DA8611
:103ED00011E0FEF745F80246BB69D31A3A689A42E8
:103EE00003D83B68B3F1FF3F02D13B68002B02D1FE
:103EF0000323FB7726E0FB68DB8E9BB2002BCDD142
:103F0000BA693968F86800F0D9FB0346002B02D083
:103F1000FB6820225A65FB689B68002B0AD10023AE
:103F20003B61FB681B68DB683B61FB681B689B6847
:103F30003B613B69FB685B6D002B02D00123FB7783
:103F400000E000BFFB68012283F85120FB680022DB
:103F500083F85020FB7F18462037BD4680BD80B5D2
:103F600088B002AFF860B9603B601346FB80002365
:103F7000FB75FB685B68B3F5827F12D1FB689B68B9
:103F8000002B0ED1FB68042283F85120FA883B688D
:103F900000931346BA68B968F86800F0F1F8034670
:103FA000EAE0FB6893F85030012B01D10223E3E0F3
:103FB000FB68012283F85020FDF7D2FF3861FB68CF
:103FC00093F85130DBB2012B02D00223FB75CAE01B
:103FD000BB68002B02D0FB88002B02D10123FB75AC
:103FE000C1E0FB68042283F85120FB6800225A6577
:103FF000FB68BA689A63FB68FA889A87FB68FA8854
:10400000DA87FB6800221A63FB6800229A86FB6845
:104010000022DA86FB6800221A64FB6800225A64D8
:10402000FB689B68B3F5004F0FD1FB681B681A68EB
:10403000FB681B6822F040021A60FB681B681A6864
:10404000FB681B6822F480421A60FB681B681B68CF
:1040500003F04003402B07D0FB681B681A68FB681D
:104060001B6842F040021A60FB68DB68002B62D1DB
:104070002EE0FB681B689B6803F00103012B15D140
:10408000FB681B6803F10C02FB689B6B1278D2B2D1
:104090001A70FB689B6B5A1CFB689A63FB68DB8F8A
:1040A0009BB2013B9AB2FB68DA8711E0FDF758FF3B
:1040B00002463B69D31A3A689A4203D83B68B3F187
:1040C000FF3F02D13B68002B02D10323FB754AE07E
:1040D000FB68DB8F9BB2002BCBD131E0FB681B6808
:1040E0009B6803F00103012B13D1FB681B68DA689E
:1040F000FB689B6B92B21A80FB689B6B9A1CFB68F7
:104100009A63FB68DB8F9BB2013B9AB2FB68DA874C
:1041100011E0FDF725FF02463B69D31A3A689A423F
:1041200003D83B68B3F1FF3F02D13B68002B02D1BB
:104130000323FB7517E0FB68DB8F9BB2002BCDD10F
:104140003A693968F86800F053FA0346002B02D048
:10415000FB6820225A65FB685B6D002B02D00123AF
:10416000FB7500E000BFFB68012283F85120FB686B
:10417000002283F85020FB7D18461837BD4680BDCD
:1041800080B58CB000AFF860B9607A607B800123A5
:10419000FB62002387F82B30FB6893F85030012B2B
:1041A00001D102238AE1FB68012283F85020FDF748
:1041B000D7FE7862FB6893F8513087F82330FB68AC
:1041C0005B68FB617B887B8397F82330012B0FD0E2
:1041D000FB69B3F5827F07D1FB689B68002B03D195
:1041E00097F82330042B03D0022387F82B305BE1B0
:1041F000BB68002B05D07B68002B02D07B88002B8E
:1042000003D1012387F82B304EE1FB6893F851303E
:10421000DBB2042B03D0FB68052283F85120FB6836
:1042200000225A65FB687A689A63FB687A88DA87A5
:10423000FB687A889A87FB68BA681A63FB687A8891
:10424000DA86FB687A889A86FB6800221A64FB6823
:1042500000225A64FB681B681B6803F04003402B74
:1042600007D0FB681B681A68FB681B6842F04002B5
:104270001A60FB68DB68B3F5006F78D1FB685B6898
:10428000002B02D07B8B012B66D1FB681B6B1A883D
:10429000FB681B68DA60FB681B6B9A1CFB681A637F
:1042A000FB68DB8E9BB2013B9AB2FB68DA8653E077
:1042B000FB681B689B6803F00203022B1BD1FB68A1
:1042C000DB8E9BB2002B16D0FB6A012B13D1FB684F
:1042D0001B6B1A88FB681B68DA60FB681B6B9A1CF7
:1042E000FB681A63FB68DB8E9BB2013B9AB2FB68EA
:1042F000DA860023FB62FB681B689B6803F00103FE
:10430000012B19D1FB68DB8F9BB2002B14D0FB680B
:104310001B68DA68FB689B6B92B21A80FB689B6B28
:104320009A1CFB689A63FB68DB8F9BB2013B9AB2D5
:10433000FB68DA870123FB62FDF712FE02467B6A07
:10434000D31ABA6B9A4207D8BB6BB3F1FF3F03D0C5
:10435000032387F82B30A7E0FB68DB8E9BB2002B92
:10436000A6D1FB68DB8F9BB2002BA1D17CE0FB6860
:104370005B68002B02D07B8B012B6BD1FB681A6B27
:10438000FB681B680C3312781A70FB681B6B5A1C95
:10439000FB681A63FB68DB8E9BB2013B9AB2FB6839
:1043A000DA8657E0FB681B689B6803F00203022B68
:1043B0001CD1FB68DB8E9BB2002B17D0FB6A012B54
:1043C00014D1FB681A6BFB681B680C3312781A70E7
:1043D000FB681B6B5A1CFB681A63FB68DB8E9BB285
:1043E000013B9AB2FB68DA860023FB62FB681B681C
:1043F0009B6803F00103012B19D1FB68DB8F9BB293
:10440000002B14D0FB681B68DA68FB689B6BD2B288
:104410001A70FB689B6B5A1CFB689A63FB68DB8F06
:104420009BB2013B9AB2FB68DA870123FB62FDF77E
:1044300097FD02467B6AD31ABA6B9A4203D8BB6BCC
:10444000B3F1FF3F02D1BB6B002B03D1032387F8ED
:104450002B3029E0FB68DB8E9BB2002BA2D1FB68DE
:10446000DB8F9BB2002B9DD17A6AB96BF86800F0A4
:1044700025F90346002B06D0012387F82B30FB6873
:1044800020225A6510E0FB689B68002B0BD10023AB
:104490007B61FB681B68DB687B61FB681B689B6852
:1044A0007B617B6900E000BFFB68012283F851203B
:1044B000FB68002283F8502097F82B3018463037DD
:1044C000BD4680BD80B483B000AF78607B6893F850
:1044D0005130DBB218460C37BD465DF8047B70479F
:1044E00080B588B000AFF860B9603B601346FB71DF
:1044F000FDF736FD0246BB6A9B1A3A681344FB611E
:10450000FDF72EFDB861394B1B685B011B0DFA6985
:1045100002FB03F37B6154E03B68B3F1FF3F50D0F3
:10452000FDF71EFD0246BB69D31AFA699A4202D909
:10453000FB69002B3DD1FB681B685A68FB681B6850
:1045400022F0E0025A60FB685B68B3F5827F11D10C
:10455000FB689B68B3F5004F04D0FB689B68B3F51C
:10456000806F07D1FB681B681A68FB681B6822F024
:1045700040021A60FB689B6AB3F5005F0FD1FB68CD
:104580001B681A68FB681B6822F400521A60FB68FB
:104590001B681A68FB681B6842F400521A60FB68CB
:1045A000012283F85120FB68002283F85020032366
:1045B00017E07B69002B01D10023FB617B69013B84
:1045C0007B61FB681B689A68BB681340BA689A42B3
:1045D0000CBF01230023DBB21A46FB799A429BD120
:1045E000002318462037BD4680BD00BF08000020CC
:1045F00080B586B002AFF860B9607A60FB685B682E
:10460000B3F5827F11D1FB689B68B3F5004F04D0EE
:10461000FB689B68B3F5806F07D1FB681B681A685D
:10462000FB681B6822F040021A60FB685B68B3F508
:10463000827F2AD1FB689B68B3F5806F12D07B68BC
:104640000093BB6800228021F868FFF749FF03460A
:10465000002B2DD0FB685B6D43F02002FB685A6590
:10466000032326E07B680093BB6800220121F868E1
:10467000FFF736FF0346002B1AD0FB685B6D43F053
:104680002002FB685A65032313E07B680093BB6834
:1046900000220121F868FFF723FF0346002B07D013
:1046A000FB685B6D43F02002FB685A65032300E062
:1046B000002318461037BD4680BD000080B588B085
:1046C00002AFF860B9607A601B4B1B681B4AA2FB03
:1046D00003235B0D4FF47A7202FB03F37B61FB68EB
:1046E0005B68B3F5827F12D17B680093BB680022C0
:1046F0008021F868FFF7F4FE0346002B16D0FB6814
:104700005B6D43F02002FB685A6503230FE07B6971
:10471000002B0AD07B69013B7B61FB681B689B68AF
:1047200003F08003802BF2D000E000BF0023184686
:104730001837BD4680BD00BF08000020819F5E166F
:1047400080B582B000AF78607B68002B01D1012377
:1047500041E07B6893F83D30DBB2002B06D17B68EB
:10476000002283F83C207868FDF78AF97B680222F2
:1047700083F83D207B681A687B680433194610462D
:1047800000F096FA7B68012283F846207B680122BC
:1047900083F83E207B68012283F83F207B6801225A
:1047A00083F840207B68012283F841207B68012246
:1047B00083F842207B68012283F843207B68012232
:1047C00083F844207B68012283F845207B6801221E
:1047D00083F83D20002318460837BD4680BD000001
:1047E00080B485B000AF78607B6893F83D30DBB271
:1047F000012B01D001234EE07B68022283F83D208B
:104800007B681B68DA687B681B6842F00102DA602B
:104810007B681B68234A934222D07B681B68B3F1F4
:10482000804F1DD07B681B681F4A934218D07B685D
:104830001B681E4A934213D07B681B681C4A934234
:104840000ED07B681B681B4A934209D07B681B68AB
:10485000194A934204D07B681B68184A934211D1CD
:104860007B681B689B6803F00703FB60FB68062BF3
:1048700010D07B681B681A687B681B6842F00102D5
:104880001A6007E07B681B681A687B681B6842F047
:1048900001021A60002318461437BD465DF8047BF8
:1048A000704700BF000001400004004000080040C5
:1048B000000C00400004014000400140001800408E
:1048C00080B582B000AF78607B681B681B6903F01D
:1048D0000203022B22D17B681B68DB6803F0020312
:1048E000022B1BD17B681B686FF002021A617B6888
:1048F00001221A777B681B689B6903F00303002B76
:1049000003D0786800F0B5F905E0786800F0A7F901
:10491000786800F0B8F97B6800221A777B681B681A
:104920001B6903F00403042B22D17B681B68DB683E
:1049300003F00403042B1BD17B681B686FF0040297
:104940001A617B6802221A777B681B689B6903F4F3
:104950004073002B03D0786800F08BF905E078688D
:1049600000F07DF9786800F08EF97B6800221A77F4
:104970007B681B681B6903F00803082B22D17B6846
:104980001B68DB6803F00803082B1BD17B681B68DE
:104990006FF008021A617B6804221A777B681B6833
:1049A000DB6903F00303002B03D0786800F061F9A2
:1049B00005E0786800F053F9786800F064F97B68E6
:1049C00000221A777B681B681B6903F01003102B09
:1049D00022D17B681B68DB6803F01003102B1BD10E
:1049E0007B681B686FF010021A617B6808221A77D7
:1049F0007B681B68DB6903F44073002B03D0786885
:104A000000F037F905E0786800F029F9786800F0DF
:104A10003AF97B6800221A777B681B681B6903F0F0
:104A20000103012B0ED17B681B68DB6803F00103D7
:104A3000012B07D17B681B686FF001021A6178684F
:104A4000FCF7F0FA7B681B681B6903F08003802B7E
:104A50000ED17B681B68DB6803F08003802B07D1D5
:104A60007B681B686FF080021A61786800F0E0FADA
:104A70007B681B681B6903F04003402B0ED17B68E9
:104A80001B68DB6803F04003402B07D17B681B6881
:104A90006FF040021A61786800F0FFF87B681B68CD
:104AA0001B6903F02003202B0ED17B681B68DB6899
:104AB00003F02003202B07D17B681B686FF02002D6
:104AC0001A61786800F0AAFA00BF0837BD4680BDB9
:104AD00080B584B000AF786039600023FB737B68D9
:104AE00093F83C30012B01D10223B4E07B68012212
:104AF00083F83C207B68022283F83D207B681B689A
:104B00009B68BB60BB6823F07703BB60BB6823F482
:104B10007F43BB607B681B68BA689A603B681B6810
:104B2000B3F5005F3ED0B3F5005F00F28780B3F5C8
:104B3000805F00F08680B3F5805F7FD8702B1AD03D
:104B4000702B7BD8602B50D0602B77D8502B3CD06B
:104B5000502B73D8402B58D0402B6FD8302B64D0BB
:104B6000302B6BD8202B60D0202B67D8002B5CD04B
:104B7000102B5AD062E07B6818683B6899683B68E4
:104B80005A683B68DB6800F0ADF97B681B689B687E
:104B9000BB60BB6843F07703BB607B681B68BA6887
:104BA0009A604FE07B6818683B6899683B685A6870
:104BB0003B68DB6800F096F97B681B689A687B6845
:104BC0001B6842F480429A603CE07B6818683B684E
:104BD00059683B68DB681A4600F00AF97B681B6875
:104BE0005021184600F063F92CE07B6818683B6898
:104BF00059683B68DB681A4600F029F97B681B6836
:104C00006021184600F053F91CE07B6818683B6887
:104C100059683B68DB681A4600F0EAF87B681B6855
:104C20004021184600F043F90CE07B681A683B68A5
:104C30001B681946104600F03AF903E00123FB73A4
:104C400000E000BF7B68012283F83D207B680022E2
:104C500083F83C20FB7B18461037BD4680BD80B4EE
:104C600083B000AF786000BF0C37BD465DF8047BB1
:104C7000704780B483B000AF786000BF0C37BD468A
:104C80005DF8047B704780B483B000AF786000BFEC
:104C90000C37BD465DF8047B704780B483B000AF2D
:104CA000786000BF0C37BD465DF8047B704700009C
:104CB00080B485B000AF786039607B681B68FB60AA
:104CC0007B68404A934213D07B68B3F1804F0FD08A
:104CD0007B683D4A93420BD07B683C4A934207D0A5
:104CE0007B683B4A934203D07B683A4A934208D19F
:104CF000FB6823F07003FB603B685B68FA68134352
:104D0000FB607B682F4A93422BD07B68B3F1804FC6
:104D100027D07B682C4A934223D07B682B4A93424E
:104D20001FD07B682A4A93421BD07B68294A934252
:104D300017D07B68284A934213D07B68274A934256
:104D40000FD07B68264A93420BD07B68254A93425A
:104D500007D07B68244A934203D07B68234A93425E
:104D600008D1FB6823F44073FB603B68DB68FA689A
:104D70001343FB60FB6823F080023B685B691343CD
:104D8000FB607B68FA681A603B689A687B68DA6245
:104D90003B681A687B689A627B680A4A934203D030
:104DA0007B680C4A934203D13B681A697B681A639B
:104DB0007B6801225A6100BF1437BD465DF8047B51
:104DC000704700BF000001400004004000080040A0
:104DD000000C00400004014000400140004401403C
:104DE0000048014000180040001C00400020004026
:104DF00080B487B000AFF860B9607A60FB681B6A66
:104E00007B61FB681B6A23F00102FB681A62FB6886
:104E10009B693B613B6923F0F0033B617B681B01AD
:104E20003A6913433B617B6923F00A037B617A692A
:104E3000BB6813437B61FB683A699A61FB687A69D6
:104E40001A6200BF1C37BD465DF8047B704780B412
:104E500087B000AFF860B9607A60FB681B6A23F026
:104E60001002FB681A62FB689B697B61FB681B6A26
:104E70003B617B6923F470437B617B681B037A6928
:104E800013437B613B6923F0A0033B61BB681B01BB
:104E90003A6913433B61FB687A699A61FB683A6936
:104EA0001A6200BF1C37BD465DF8047B704780B4B2
:104EB00085B000AF786039607B689B68FB60FB68F9
:104EC00023F07003FB603A68FB68134343F0070369
:104ED000FB607B68FA689A6000BF1437BD465DF8D6
:104EE000047B704780B487B000AFF860B9607A6027
:104EF0003B60FB689B687B617B6923F47F437B613C
:104F00003B681A027B681A43BB6813437A691343F0
:104F10007B61FB687A699A6000BF1C37BD465DF80B
:104F2000047B704780B485B000AF786039607B68DF
:104F300093F83C30012B01D102235AE07B68012217
:104F400083F83C207B68022283F83D207B681B6845
:104F50005B68FB607B681B689B68BB60FB6823F039
:104F60007003FB603B681B68FA681343FB607B6857
:104F70001B68FA685A607B681B68214A934222D0FA
:104F80007B681B68B3F1804F1DD07B681B681D4A8E
:104F9000934218D07B681B681B4A934213D07B68EE
:104FA0001B681A4A93420ED07B681B68184A9342CA
:104FB00009D07B681B68174A934204D07B681B6842
:104FC000154A93420CD1BB6823F08003BB603B6859
:104FD0005B68BA681343BB607B681B68BA689A60F9
:104FE0007B68012283F83D207B68002283F83C2007
:104FF000002318461437BD465DF8047B704700BF98
:10500000000001400004004000080040000C004087
:1050100000040140004001400018004080B483B00B
:1050200000AF786000BF0C37BD465DF8047B704769
:1050300080B483B000AF786000BF0C37BD465DF828
:10504000047B704780B582B000AF78607B68002B2E
:1050500001D101233FE07B6893F83D30DBB2002BA8
:1050600006D17B68002283F83C207868FCF72EFD8F
:105070007B68242283F83D207B681B68DA687B68A4
:105080001B6822F40052DA60786800F07BFC7B68D1
:105090001B681A697B681B6822F490421A617B685E
:1050A0001B685A697B681B6822F02A025A617B6878
:1050B0001B68DA687B681B6842F40052DA607B6820
:1050C00000221A647B68202283F83D207B6820221E
:1050D00083F83E20002318460837BD4680BD0000F7
:1050E00080B5BAB000AF78607B681B681B68C7F8F2
:1050F000E4307B681B68DB68C7F8E0307B681B68BE
:105100005B69C7F8DC300023C7F8D8300023C7F844
:10511000D430D7F8E43003F00F03C7F8D830D7F80D
:10512000D830002B0FD1D7F8E43003F02003002B48
:1051300009D0D7F8E03003F02003002B03D07868C3
:1051400000F065FB56E2D7F8D830002B00F0DE8087
:10515000D7F8DC3003F00103002B06D1D7F8E0309C
:1051600003F49073002B00F0D180D7F8E43003F003
:105170000103002B0BD0D7F8E03003F48073002B31
:1051800005D07B681B6C43F001027B681A64D7F87A
:10519000E43003F00403002B0BD0D7F8DC3003F02D
:1051A0000103002B05D07B681B6C43F002027B6877
:1051B0001A64D7F8E43003F00203002B0BD0D7F8C1
:1051C000DC3003F00103002B05D07B681B6C43F03F
:1051D00004027B681A64D7F8E43003F00803002B5C
:1051E00011D0D7F8E03003F02003002B05D1D7F819
:1051F000DC3003F00103002B05D07B681B6C43F00F
:1052000008027B681A647B681B6C002B00F0ED8140
:10521000D7F8E43003F02003002B08D0D7F8E030B3
:1052200003F02003002B02D0786800F0F0FA7B68CE
:105230001B685B6903F04003402B0CBF0123002374
:10524000DBB2C7F8D4307B681B6C03F00803002B7B
:1052500003D1D7F8D430002B4FD0786800F0F8F99C
:105260007B681B685B6903F04003402B41D17B687E
:105270001B681433C7F89C30D7F89C3053E8003FC4
:10528000C7F89830D7F8983023F04003C7F8D030EB
:105290007B681B681433D7F8D020C7F8A820C7F85C
:1052A000A430D7F8A410D7F8A82041E80023C7F805
:1052B000A030D7F8A030002BD9D17B689B6B002B96
:1052C00013D07B689B6B7D4A1A657B689B6B184685
:1052D000FDF74FFE0346002B16D07B689B6B1B6DC2
:1052E0007A68926B104698470EE0786800F09AF959
:1052F0000AE0786800F096F906E0786800F092F924
:105300007B6800221A6470E100BF6EE17B681B6B52
:10531000012B40F04A81D7F8E43003F01003002B52
:1053200000F04381D7F8E03003F01003002B00F0C9
:105330003C810023BB607B681B681B68BB607B688B
:105340001B685B68BB60BB687B681B685B6903F0BC
:105350004003402B40F0B4807B689B6B1B685B680C
:10536000A7F8BE30B7F8BE30002B00F040817B6854
:105370009B8DB7F8BE209A4280F039817B68B7F8E0
:10538000BE20DA857B689B6BDB69B3F5807F00F01C
:1053900088807B681B680C33C7F88830D7F8883062
:1053A00053E8003FC7F88430D7F8843023F4807383
:1053B000C7F8B8307B681B680C33D7F8B820C7F83B
:1053C0009420C7F89030D7F89010D7F8942041E88F
:1053D0000023C7F88C30D7F88C30002BD9D17B68EC
:1053E0001B6814337B677B6F53E8003F3B673B6F61
:1053F00023F00103C7F8B4307B681B681433D7F877
:10540000B420C7F88020FB67F96FD7F8802041E807
:105410000023BB67BB6F002BE1D17B681B68143393
:105420003B663B6E53E8003FFB65FB6D23F040039A
:10543000C7F8B0307B681B681433D7F8B020FA6621
:10544000BB66B96EFA6E41E800237B667B6E002B6B
:10545000E3D17B68202283F83E207B6800221A6318
:105460007B681B680C33FB64FB6C53E8003FBB6438
:10547000BB6C23F01003C7F8AC307B681B680C339F
:10548000D7F8AC20BA657B65796DBA6D41E8002329
:105490003B653B6D002BE3D17B689B6B1846FDF7AA
:1054A000F8FC7B689A8D7B68DB8D9BB2D31A9BB22C
:1054B0001946786800F0C0F899E000BF1757000857
:1054C0007B689A8D7B68DB8D9BB2D31AA7F8CE30B0
:1054D0007B68DB8D9BB2002B00F08B80B7F8CE3061
:1054E000002B00F086807B681B680C33BB63BB6BB2
:1054F00053E8003F7B637B6B23F49073C7F8C8309D
:105500007B681B680C33D7F8C8207A643B64396C1D
:105510007A6C41E80023FB63FB6B002BE3D17B68D3
:105520001B6814337B627B6A53E8003F3B623B6A33
:1055300023F00103C7F8C4307B681B681433D7F825
:10554000C4203A63FB62F96A3A6B41E80023BB620C
:10555000BB6A002BE3D17B68202283F83E207B6866
:1055600000221A637B681B680C333B613B6953E87C
:10557000003FFB60FB6823F01003C7F8C0307B6876
:105580001B680C33D7F8C020FA61BB61B969FA69AE
:1055900041E800237B617B69002BE3D1B7F8CE3073
:1055A0001946786800F048F823E0D7F8E43003F0B3
:1055B0008003002B09D0D7F8E03003F08003002BE4
:1055C00003D0786800F0BBF814E0D7F8E43003F0BB
:1055D0004003002B0ED0D7F8E03003F04003002B3F
:1055E00008D0786800F0FBF804E000BF02E000BFDC
:1055F00000E000BFE837BD4680BD00BF80B483B087
:1056000000AF786000BF0C37BD465DF8047B704783
:1056100080B483B000AF786000BF0C37BD465DF842
:10562000047B704780B483B000AF786000BF0C3754
:10563000BD465DF8047B704780B483B000AF7860EE
:105640000B467B8000BF0C37BD465DF8047B70477E
:1056500080B495B000AF78607B681B680C337B63C7
:105660007B6B53E8003F3B633B6B23F49073FB641D
:105670007B681B680C33FA6C3A64FB63F96B3A6C19
:1056800041E80023BB63BB6B002BE5D17B681B6843
:1056900014333B623B6A53E8003FFB61FB6923F034
:1056A0000103BB647B681B681433BA6CFA62BB628B
:1056B000B96AFA6A41E800237B627B6A002BE5D174
:1056C0007B681B6B012B19D17B681B680C33FB605B
:1056D000FB6853E8003FBB60BB6823F010037B64AA
:1056E0007B681B680C337A6CBA617B617969BA6933
:1056F00041E800233B613B69002BE5D17B68202218
:1057000083F83E207B6800221A6300BF5437BD46F1
:105710005DF8047B704780B584B000AF78607B682B
:105720009B6BFB60FB680022DA85FB680022DA8451
:10573000F868FFF777FF00BF1037BD4680BD80B423
:1057400085B000AF78607B6893F83D30DBB2212BE9
:105750003ED17B689B68B3F5805F14D17B681B6981
:10576000002B10D17B681B6AFB60FB681B881A4604
:105770007B681B68C2F308025A607B681B6A9A1C2C
:105780007B681A6208E07B681B6A591C7A681162A0
:105790001A787B681B685A607B68DB8C9BB2013B84
:1057A0009BB27A681946D184002B0FD17B681B68A5
:1057B000DA687B681B6822F08002DA607B681B680D
:1057C000DA687B681B6842F04002DA60002300E080
:1057D000022318461437BD465DF8047B704780B538
:1057E00082B000AF78607B681B68DA687B681B68F2
:1057F00022F04002DA607B68202283F83D2078683E
:10580000FFF7FCFE002318460837BD4680BD80B573
:105810008CB000AF78607B6893F83E30DBB2222B0F
:1058200040F0AB807B689B68B3F5805F17D17B68E5
:105830001B69002B13D10023FB627B689B6ABB6250
:105840007B681B685B689BB2C3F308039AB2BB6AB0
:105850001A807B689B6A9A1C7B689A6226E07B6848
:105860009B6AFB620023BB627B689B68B3F5805F29
:1058700007D07B689B68002B0AD17B681B69002BD3
:1058800006D17B681B685B68DAB2FB6A1A7008E0B5
:105890007B681B685B68DBB203F07F03DAB2FB6AEC
:1058A0001A707B689B6A5A1C7B689A627B68DB8DE6
:1058B0009BB2013B9BB27A681946D185002B5AD125
:1058C0007B681B68DA687B681B6822F02002DA605C
:1058D0007B681B68DA687B681B6822F48072DA6078
:1058E0007B681B685A697B681B6822F001025A6159
:1058F0007B68202283F83E207B681B6B012B35D10F
:105900007B6800221A637B681B680C337B617B69B0
:1059100053E8003F3B613B6923F010037B627B68E7
:105920001B680C337A6A3A62FB61F9693A6A41E8AA
:105930000023BB61BB69002BE5D17B681B681B683A
:1059400003F01003102B0AD10023FB607B681B6857
:105950001B68FB607B681B685B68FB60FB687B689F
:105960009B8D19467868FFF767FE02E07868FFF7BD
:105970004FFE002302E0002300E0022318463037E8
:10598000BD4680BD2DE9B04FC0B000AFC7F8F400F0
:10599000D7F8F4301B681B6923F44050D7F8F43073
:1059A000D968D7F8F4301A6840EA01031361D7F8D0
:1059B000F4309A68D7F8F4301B691A43D7F8F430FA
:1059C0005B691A43D7F8F430DB691343C7F8F83042
:1059D000D7F8F4301B68DB6823F4164121F00C0182
:1059E000D7F8F4301A68D7F8F8300B43D360D7F8FB
:1059F000F4301B685B6923F44070D7F8F430996980
:105A0000D7F8F4301A6840EA01035361D7F8F4304C
:105A10001A688F4B9A4205D0D7F8F4301A688D4B2C
:105A20009A4204D1FEF7C2F8C7F8FC0003E0FEF783
:105A3000A9F8C7F8FC00D7F8F430DB69B3F5004FDC
:105A400040F00C81D7F8FC300022C7F8E830C7F8E6
:105A5000EC20D7E93A4522462B469118B9655B41BF
:105A6000FB65D7E91623214612EB0108294643EBD3
:105A700001094FF000024FF000034FEAC90343EA67
:105A800058734FEAC80290469946234618EB030321
:105A9000C7F8E0302B4649EB0303C7F8E430D7F8EA
:105AA000F4305B680022C7F8D830C7F8DC20D7E9AB
:105AB00036120B46DB183B65134642EB03037B654E
:105AC000D7E91423D7E93801FAF7D2FB02460B468F
:105AD000614BA3FB02235B091C01D7F8FC300022B9
