:020000040800F2
:1000000000000220311F0008711C0008771C000846
:100010007D1C0008831C0008891C000800000000EB
:100020000000000000000000000000008F1C00081D
:100030009D1C000800000000AB1C0008B91C000853
:10004000811F0008811F0008811F0008811F000810
:10005000811F0008811F0008811F0008811F000800
:10006000811F0008811F0008811F0008811F0008F0
:10007000811F0008811F0008811F0008811F0008E0
:10008000811F0008811F0008811F0008811F0008D0
:10009000C51C0008811F0008811F0008811F00087F
:1000A000811F0008811F0008811F0008811F0008B0
:1000B000D91C0008811F0008811F0008811F00084B
:1000C000811F0008811F0008811F0008811F000890
:1000D000811F0008811F0008811F0008811F000880
:1000E000811F0008811F0008811F0008811F000870
:1000F000811F0008811F0008811F0008811F000860
:10010000811F0008811F0008811F0008811F00084F
:10011000811F0008811F0008811F0008811F00083F
:10012000811F0008811F0008811F0008811F00082F
:10013000811F00080000000000000000811F00086F
:10014000811F0008ED1C0008811F0008811F0008A6
:10015000811F0008811F0008811F0008811F0008FF
:10016000811F0008811F0008811F0008811F0008EF
:10017000811F0008811F000800000000000000002F
:08018000811F0008811F000827
:1001900010B5054C237833B9044B13B10448AFF3C1
:1001A00000800123237010BD7800002000000000B3
:1001B0008060000808B5034B1BB103490348AFF347
:1001C000008008BD000000007C0000208060000866
:1001D00001F0FF01102A2BDB10F0070F08D010F8F8
:1001E000013B013A8B422DD010F0070F42B3F6D1FC
:1001F000F0B441EA012141EA014122F007047FF015
:1002000000070023F0E80256083C85EA010586EA6B
:10021000010685FA47F5A3FA87F586FA47F6A5FAA7
:1002200087F68EB9EED1F0BC01F0FF0102F00702B3
:1002300032B110F8013B013A83EA010313B1F8D15E
:100240000020704701387047002D06BF354603383F
:10025000073815F0010F07D1013015F4807F02BF78
:10026000013015F4C03F0130F0BC0138704700BFC9
:1002700053B94AB9002908BF00281CBF4FF0FF310D
:100280004FF0FF3000F074B9ADF1080C6DE904CE09
:1002900000F006F8DDF804E0DDE9022304B0704761
:1002A0002DE9F047089D04468E46002B4DD18A4229
:1002B000944669D9B2FA82F252B101FA02F3C2F15C
:1002C000200120FA01F10CFA02FC41EA030E9440ED
:1002D0004FEA1C48210CBEFBF8F61FFA8CF708FB0E
:1002E00016E341EA034306FB07F199420AD91CEBE6
:1002F000030306F1FF3080F01F81994240F21C8118
:10030000023E63445B1AA4B2B3FBF8F008FB10335F
:1003100044EA034400FB07F7A7420AD91CEB040494
:1003200000F1FF3380F00A81A74240F20781644464
:10033000023840EA0640E41B00261DB1D4400023E9
:10034000C5E900433146BDE8F0878B4209D9002D4D
:1003500000F0EF800026C5E9000130463146BDE8D7
:10036000F087B3FA83F6002E4AD18B4202D3824241
:1003700000F2F980841A61EB030301209E46002DF0
:10038000E0D0C5E9004EDDE702B9FFDEB2FA82F245
:10039000002A40F09280A1EB0C014FEA1C471FFAA3
:1003A0008CFE0126200CB1FBF7F307FB131140EA8A
:1003B00001410EFB03F0884208D91CEB010103F157
:1003C000FF3802D2884200F2CB804346091AA4B219
:1003D000B1FBF7F007FB101144EA01440EFB00FEED
:1003E000A64508D91CEB040400F1FF3102D2A64552
:1003F00000F2BB800846A4EB0E0440EA03409CE7F1
:10040000C6F12007B34022FA07FC4CEA030C20FA9D
:1004100007F401FA06F31C43F9404FEA1C4900FABD
:1004200006F3B1FBF9F8200C1FFA8CFE09FB18113A
:1004300040EA014108FB0EF0884202FA06F20BD9AD
:100440001CEB010108F1FF3A80F08880884240F2FD
:100450008580A8F102086144091AA4B2B1FBF9F041
:1004600009FB101144EA014100FB0EFE8E4508D93C
:100470001CEB010100F1FF346CD28E456AD90238C1
:10048000614440EA0840A0FB0294A1EB0E01A142A6
:10049000C846A64656D353D05DB1B3EB080261EB14
:1004A0000E0101FA07F722FA06F3F1401F43C5E9EE
:1004B000007100263146BDE8F087C2F12003D84024
:1004C0000CFA02FC21FA03F3914001434FEA1C4766
:1004D0001FFA8CFEB3FBF7F007FB10360B0C43EA58
:1004E000064300FB0EF69E4204FA02F408D91CEB08
:1004F000030300F1FF382FD29E422DD90238634406
:100500009B1B89B2B3FBF7F607FB163341EA0341A5
:1005100006FB0EF38B4208D91CEB010106F1FF38F4
:1005200016D28B4214D9023E6144C91A46EA0046EB
:1005300038E72E46284605E70646E3E61846F8E67D
:100540004B45A9D2B9EB020864EB0C0E0138A3E7C6
:100550004646EAE7204694E74046D1E7D0467BE7A7
:10056000023B614432E7304609E76444023842E71F
:10057000704700BF80B582B000AF0346FB7105E055
:100580001B4B1B780133DAB2194B1A70194804F06F
:1005900017FB0346032BF3D0F91D642301221548F2
:1005A00003F01FFF124B00221A7005E0104B1B785E
:1005B0000133DAB20E4B1A700E4804F001FB034609
:1005C000042BF3D0F91D642301220A4804F045F8F6
:1005D00003461A46084B1A7000BF064804F0F0FAAA
:1005E0000346022BF9D000BF00BF0837BD4680BDCF
:1005F00094000020300100209500002080B582B0DA
:1006000000AF03460A46FB711346BB71BB79002B52
:1006100006D001224FF480710D4803F01BFA05E06B
:1006200000224FF480710A4803F014FA002280215E
:10063000074803F00FFAFB791846FFF79BFF0122EA
:100640008021034803F006FA00BF0837BD4680BD8D
:100650000004024080B582B000AF03460A46FB7139
:100660001346BB71FB7900211846FFF7C7FFBB7922
:1006700001211846FFF7C2FF00BF0837BD4680BD05
:1006800080B584B000AF0346FB80F023BB60BA683E
:1006900013469B0013449B01BB6000212A20FFF7F7
:1006A000ADFF01210020FFF7A9FF01210020FFF786
:1006B000A5FF01210020FFF7A1FF0121EF20FFF797
:1006C0009DFF00212B20FFF799FF01210020FFF75C
:1006D00095FF01210020FFF791FF01210120FFF785
:1006E0008DFF01213F20FFF789FF00212C20FFF71C
:1006F00085FF00228021144803F0ACF901224FF459
:100700008071114803F0A6F90023FB600EE0FB881E
:100710001B0A9BB2DBB21846FFF72CFFFB88DBB24B
:100720001846FFF727FFFB680133FB60FA68BB68D8
:100730009A42ECD301228021034803F08BF900BFD9
:100740001037BD4680BD00BF0004024080B500AF39
:1007500001220421814803F07DF9012280217F4894
:1007600003F078F9012240217C4803F073F901225B
:1007700004217A4803F06EF9052001F075FC00228F
:100780000421764803F066F9052001F06DFC012292
:100790000421724803F05EF9052001F065FC012296
:1007A00080216E4803F056F900211120FFF726FF43
:1007B0000A2001F059FC00213620FFF74BFF0521EC
:1007C0003A20FFF747FF0021B220FFF717FF012172
:1007D0000C20FFF713FF01210C20FFF70FFF012171
:1007E0000020FFF70BFF01213320FFF707FF012156
:1007F0003320FFF703FF3521B720FFF72BFF282118
:10080000BB20FFF727FF3C21C020FFF723FF01217A
:10081000C220FFF71FFF0B21C320FFF71BFF202182
:10082000C420FFF717FF0F21C620FFF713FF002199
:10083000D020FFF7E3FE0121A420FFF7DFFE012116
:10084000A120FFF7DBFE0021E020FFF7D7FE01210A
:10085000D020FFF7D3FE01210120FFF7CFFE0121B9
:100860000820FFF7CBFE01210F20FFF7C7FE012173
:100870001120FFF7C3FE01212A20FFF7BFFE01214F
:100880003620FFF7BBFE01215520FFF7B7FE0121FF
:100890004420FFF7B3FE01213A20FFF7AFFE01210C
:1008A0000B20FFF7ABFE01210620FFF7A7FE012179
:1008B0001120FFF7A3FE01212020FFF79FFE00215A
:1008C000E120FFF79BFE0121D020FFF797FE0121D9
:1008D0000220FFF793FE01210720FFF78FFE012181
:1008E0000A20FFF78BFE01210B20FFF787FE012175
:1008F0001820FFF783FE01213420FFF77FFE01213E
:100900004320FFF77BFE01214A20FFF777FE0121FC
:100910002B20FFF773FE01211B20FFF76FFE012143
:100920001C20FFF76BFE01212220FFF767FE01214B
:100930001F20FFF763FE00212920FFF75FFEFF2144
:100940005120FFF787FEB0215520FFF783FE4FF6B9
:10095000FF70FFF795FE00BF80BD00BF000402409E
:1009600080B400AF124B0A225A61114B00229A61E7
:100970000F4B00221A610E4B4FF240421A600C4B93
:1009800000225A600A4B4FF240429A60084B002204
:10099000DA60074B0122DA61054B01221A62044B2F
:1009A0000E225A6200BFBD465DF8047B704700BF4F
:1009B0003802002080B400AF124B14225A61114B50
:1009C00000229A610F4B01221A610E4B4EF2402217
:1009D0001A600C4B00225A600A4B4EF240229A6079
:1009E000084B0022DA60074B0122DA61054B012235
:1009F0001A62044B0E225A6200BFBD465DF8047BAA
:100A0000704700BF6002002080B400AF0B4B08228B
:100A10001A610A4B00229A60084B0022DA60074BE9
:100A200040F212721A60054B02225A60034B0022F8
:100A30001A7500BFBD465DF8047B7047EC010020CD
:100A400080B400AF0B4B08221A610A4B00229A6057
:100A5000084B0022DA60074B40F2A2721A60054B85
:100A600002225A60034B00221A7500BFBD465DF892
:100A7000047B70472002002080B400AF084B222284
:100A80001A70074B00225A70054BF0229A70044BE3
:100A90000122DA7000BFBD465DF8047B704700BFDD
:100AA0008C02002080B500AF01F06CFA00F072F803
:100AB00000F018FA00F028F900F05CF900F0C6F92F
:100AC00000F08EF900F0CEF8FFF74AFFFFF772FF53
:100AD000FFF79AFFFFF7B4FFFFF7CEFF214804F0BE
:100AE000FDF9214802F08CF8204802F089F82049ED
:100AF0001D4801F0A5FF1F491C4801F0A1FF02217C
:100B0000194802F0AEFA1021184802F0AAFAFFF7CD
:100B10001DFE00F053FD184801F00EFB642116483D
:100B200001F0DCFB144801F064FC0346134A136037
:100B30000A2001F02DF9124B1B68002BFBD0114B42
:100B4000114A1249094802F09FF80346002B04D1CC
:100B5000012202210E4802F07DFF642001F018F905
:100B6000E9E700BF88010020E00000200801002024
:100B7000380200206002002098000020AC02002013
:100B8000D4030020880200209402002020020020CC
:100B90000004024080B594B000AF07F1200330227A
:100BA0000021184604F0F6FD07F10C0300221A603C
:100BB0005A609A60DA601A610023BB60274B1B6C95
:100BC000264A43F080531364244B1B6C03F080537C
:100BD000BB60BB6800237B60214B1B68204A43F449
:100BE000804313601E4B1B6803F480437B607B686B
:100BF00002233B620123FB6210233B630223BB639E
:100C00000023FB6308233B6450237B640223BB6403
:100C10000423FB6407F12003184602F035FF034666
:100C2000002B01D000F0BCFB0F23FB6002233B61D3
:100C300080237B610023BB610023FB6107F10C0370
:100C40000121184603F098F90346002B01D000F06B
:100C5000A7FB00BF5037BD4680BD00BF0038024033
:100C60000070004080B584B000AF3B4600221A609F
:100C70005A609A60DA60214B214A1A601F4B0022A9
:100C80005A601E4B00229A601C4B00221A611B4BBB
:100C900000221A76194B002283F82020174B0022DD
:100CA000DA62164B174A9A62144B0022DA60134B31
:100CB0000122DA61114B002283F830200F4B012210
:100CC0005A610E4801F0F4F90346002B01D000F000
:100CD00067FB03233B6001237B600023BB603B4633
:100CE0001946064801F092FB0346002B01D000F0A4
:100CF00057FB00BF1037BD4680BD00BF98000020E5
:100D0000002001400100000F80B500AF174B184ACA
:100D10001A60164B14225A60144B00229A60134B2F
:100D20000022DA60114B4FF480321A610F4B00221F
:100D30005A610E4B00221A760C4B00225A760B4B4E
:100D400000229A76094B0022DA76084B00221A77A5
:100D5000064B00225A77054801F076FD0346002B2A
:100D600001D000F01DFB00BF80BD00BFE0000020EF
:100D70000064004080B500AF174B184A1A60164B4C
:100D800014225A60144B00229A60134B0022DA603E
:100D9000114B4FF480321A610F4B00225A610E4BF7
:100DA00000221A760C4B00225A760B4B00229A76C0
:100DB000094B0022DA76084B00221A77064B0022F4
:100DC0005A77054801F040FD0346002B01D000F0A2
:100DD000E7FA00BF80BD00BF0801002000680040A6
:100DE00080B500AF174B184A1A60164B4FF4827249
:100DF0005A60144B00229A60124B0022DA60114BA9
:100E000000221A610F4B00225A610E4B4FF4007200
:100E10009A610C4B1822DA610A4B00221A62094BC4
:100E200000225A62074B00229A62064B0A22DA62BB
:100E3000044803F04DFA0346002B01D000F0B0FA4D
:100E400000BF80BD300100200030014080B586B079
:100E500000AF07F1080300221A605A609A60DA6056
:100E60003B4600221A605A601D4B4FF080421A60C8
:100E70001B4B4DF636725A60194B00229A60184B84
:100E80000722DA60164B00221A61154B00229A6184
:100E9000134803F0D3FF0346002B01D000F080FA83
:100EA0004FF48053BB6007F1080319460C4804F067
:100EB0008DF90346002B01D000F072FA00233B604D
:100EC00000237B603B461946054804F0A9FB034616
:100ED000002B01D000F064FA00BF1837BD4680BD7A
:100EE0008801002080B588B000AF07F10C03002214
:100EF0001A605A609A60DA601A610023BB60204B66
:100F00001B6B1F4A43F0800313631D4B1B6B03F0E5
:100F10008003BB60BB6800237B60194B1B6B184AC6
:100F200043F001031363164B1B6B03F001037B605B
:100F30007B6800233B60124B1B6B114A43F002039A
:100F400013630F4B1B6B03F002033B603B680022F3
:100F500040F287110B4802F07DFD40F28713FB60E1
:100F600001233B6100237B610023BB6107F10C037C
:100F70001946044802F0D2FB00BF2037BD4680BDB1
:100F8000003802400004024080B582B000AF7860B3
:100F900000F012FF00BF0837BD4680BD80B586B0A7
:100FA00004AF7860734B744A0021744801F047FF26
:100FB0000346002B40F0D9806F4B1B69082B40F093
:100FC000D4806D4B1B681A466D496E4804F0EAFBED
:100FD000684B1B781A466C496C4804F0E3FB654B80
:100FE0005B781A466A496B4804F0DCFB614B9B78DE
:100FF0001A466949694804F0D5FB5E4BDB781A460E
:101000006749684804F0CEFB5A4B1B791A4666497B
:10101000664804F0C7FB574B5B791A46644965483C
:1010200004F0C0FB534B9B791A466349634804F0B4
:10103000B9FB504BDB791A466149624804F0B2FBB8
:10104000614B4FF6FF7202924FF4784201925A6858
:1010500000921B684B4A0021002000F00BFC5A4B09
:101060004FF6FF7202924FF4784201925A68009252
:101070001B68464A0B21002000F0FCFB524B4FF648
:10108000FF7202924FF4784201925A6800921B68F4
:10109000404A1621002000F0EDFB4B4B4FF6FF724B
:1010A00002924FF4784201925A6800921B683B4AC0
:1010B0002121002000F0DEFB434B4FF6FF7202922D
:1010C0004FF4784201925A6800921B68354A2C21ED
:1010D000002000F0CFFB3C4B4FF6FF7202924FF422
:1010E000784201925A6800921B68304A37210020EA
:1010F00000F0C0FB344B4FF6FF7202924FF478427F
:1011000001925A6800921B682A4A4221002000F08E
:10111000B1FB2D4B4FF6FF7202924FF478420192D1
:101120005A6800921B68254A4D21002000F0A2FB5E
:10113000254B4FF6FF7202924FF4784201925A68A3
:1011400000921B681F4A5821002000F093FB1F4BA0
:101150001F4A2049094801F097FD0346002B04D19E
:10116000012201211C4802F075FC00BF0837BD4672
:1011700080BD00BF9C020020D0010020E0000020C4
:1011800098600008B0020020A8600008C402002097
:10119000B8600008D8020020C86000085003002092
:1011A000D860000864030020E8600008780300208D
:1011B000F86000088C03002008610008A0030020EC
:1011C00018610008B40300200000002088020020FD
:1011D0008C020020EC0100200004024080B586B0A3
:1011E00004AF78605B4B5C4A01215C4801F027FE4C
:1011F0000346002B40F0AA80574B1B69082B40F098
:10120000A580554B1B681A465549564804F0CAFA42
:10121000504B1B781A465449544804F0C3FA4D4BBE
:101220005B781A465249534804F0BCFA494B9B7804
:101230001A465149514804F0B5FA464BDB781A4634
:101240004F49504804F0AEFA4F4B4FF6FF720292EE
:101250004FF4784201925A6800921B68414A632118
:10126000002000F007FB484B4FF6FF7202924FF44C
:10127000784201925A6800921B683C4A6E21002015
:1012800000F0F8FA404B4FF6FF7202924FF47842AA
:1012900001925A6800921B68364A7921002000F0BA
:1012A000E9FA394B4FF6FF7202924FF478420192FD
:1012B0005A6800921B68314A8421002000F0DAFA53
:1012C000314B4FF6FF7202924FF4784201925A6806
:1012D00000921B682B4A8F21002000F0CBFA1D4B97
:1012E0001B784033DAB2294B1A701A4B5A78274BC5
:1012F0005A70184B9A78254B9A70164BDA78234B14
:10130000DA70234B1B681B0EDAB2204B1A71204B8C
:101310001B681B0CDAB21D4B5A711D4B1B681B0A54
:10132000DAB21A4B9A711A4B1B68DAB2174BDA71A0
:10133000184B164A1849094801F0A6FC0346002B31
:1013400004D101220121154802F084FB00BF0837B7
:10135000BD4680BDA4020020040200200801002038
:1013600028610008EC020020A860000800030020AB
:10137000B860000814030020C8600008280300209B
:10138000D86000083C0300200000002094020020E8
:10139000AC0200208802002020020020000402404D
:1013A00080B400AF72B600BFFEE7000080B582B027
:1013B00000AF0346FB71002280210C4802F04AFB7B
:1013C00000224FF48071094802F044FBF91D4FF0F0
:1013D000FF330122064803F004F80122802103486C
:1013E00002F038FB00BF0837BD4680BD0004024054
:1013F0003001002080B584B000AF786039600022F1
:101400008021164802F026FB01224FF48071134818
:1014100002F020FB15E03B684FF6FF72934228BFB5
:101420001346FB81FA894FF0FF3379680C4802F0CC
:10143000D8FFFB897A6813447B60FB893A68D31A2A
:101440003B603B68002BE6D101228021034802F07B
:1014500001FB00BF1037BD4680BD00BF0004024045
:101460003001002080B582B000AF0346FB7100223E
:1014700080210C4802F0EEFA01224FF480710948F5
:1014800002F0E8FAF91D4FF0FF330122064802F09E
:10149000A8FF01228021034802F0DCFA00BF0837D0
:1014A000BD4680BD000402403001002080B582B0FE
:1014B00000AF0346FB713620FFF778FFFB79032B63
:1014C0001AD801A252F823F0D9140008E114000838
:1014D000E9140008F1140008C020FFF7C3FF0CE076
:1014E000A020FFF7BFFF08E00020FFF7BBFF04E0EC
:1014F0006020FFF7B7FF00E000BF00BF0837BD4620
:1015000080BD00BF90B587B000AF044608461146C5
:101510001A462346FB800346BB800B467B8013465E
:101520003B8000228021244802F094FAFB88FB8251
:101530007B88BB82BB887B823B883B822A20FFF76B
:1015400035FFFB8A1B0A9BB2DBB23B73FB8ADBB223
:101550007B73BB8A1B0A9BB2DBB2BB73BB8ADBB259
:10156000FB7307F10C0304211846FFF743FF2B2000
:10157000FFF71CFF7B8A1B0A9BB2DBB23B727B8AA4
:10158000DBB27B723B8A1B0A9BB2DBB2BB723B8A2B
:10159000DBB2FB7207F1080304211846FFF72AFFAC
:1015A0002C20FFF703FF01228021034802F052FAAA
:1015B00000BF1C37BD4690BD0004024090B58BB003
:1015C00000AF192000F050FD00220421464802F02F
:1015D00041FA192000F048FD01220421424802F09E
:1015E00039FA322000F040FD3A20FFF7DFFE5520A7
:1015F000FFF738FFB220FFF7D9FE3C4A07F120037E
:1016000092E8030018600433197007F120030521E4
:101610001846FFF7EFFE0120FFF748FFB720FFF75E
:10162000C5FE3520FFF71EFFBB20FFF7BFFE1920C8
:10163000FFF718FFC020FFF7B9FE2C20FFF712FFBD
:10164000C220FFF7B3FE0120FFF70CFFC320FFF716
:10165000ADFE1220FFF706FFC420FFF7A7FE2020F3
:10166000FFF700FFC620FFF7A1FE0F20FFF7FAFEED
:10167000D020FFF79BFEA420FFF7F4FEA120FFF788
:10168000F1FEE020FFF792FE194B07F110040FCB9B
:1016900007C4238007F110030E211846FFF7AAFEA6
:1016A000E120FFF783FE134B3C460FCB07C423809A
:1016B0003B460E211846FFF79DFE2120FFF776FEE0
:1016C0001120FFF773FE1320FFF770FE2920FFF7AC
:1016D0006DFE322000F0C8FC4FF6FF7000F00CF8F1
:1016E00000BF2C37BD4690BD0004024038610008A1
:1016F000406100085061000880B584B000AF034627
:10170000FB8040F23F13EF2200210020FFF7FAFE9A
:1017100000228021164802F09DF90023FB811AE087
:101720000023BB8110E0FB881B0A9BB2DBB23B723B
:10173000FB88DBB27B7207F1080302211846FFF732
:1017400059FEBB890133BB81BB89B3F5A07FEAD3C6
:10175000FB890133FB81FB89EF2BE1D90122802139
:10176000034802F077F900BF1037BD4680BD00BFC7
:101770000004024082B090B589B000AF7B6303469D
:10178000FB800B46BB801346FB700022802138484B
:1017900002F060F997F834309AB2FB8813449BB298
:1017A000013B9CB297F835309AB2BB8813449BB288
:1017B000013B9BB2B988F8882246FFF7A3FE0023BD
:1017C000FB6143E0BA6BFB78203B97F8351001FBD7
:1017D00003F31946FB690B445B0013441B887B61D0
:1017E0000023BB6129E07A69BB6902FA03F303F4C1
:1017F0000043002B0ED0BB8F1B0A9BB2DBB23B74A5
:10180000BB8FDBB27B7407F1100302211846FFF790
:10181000F1FD0FE0B7F840301B0A9BB2DBB23B731F
:10182000B7F84030DBB27B7307F10C030221184696
:10183000FFF7E0FDBB690133BB6197F834301A460E
:10184000BB699342CFD3FB690133FB6197F8353015
:101850001A46FB699342B5D301228021044802F065
:10186000F9F800BF2437BD46BDE8904002B070478C
:101870000004024082B080B586B004AF3A607B615C
:101880000346FB800B46BB8000228021224802F0E9
:10189000E1F82EE0FB883A7D1344EF2B14DD0023A2
:1018A000FB807B7D9AB2BB881344BB80BB887A7D6A
:1018B0001344B3F5A07F21DA3B681B78202B03D1BA
:1018C0003B6801333B6014E03B681A78B988F888BC
:1018D0003B8C0293BB8B0193BB6900937B69FFF741
:1018E00049FF3B7D9AB2FB881344FB803B68013380
:1018F0003B603B681B78002BCCD100E000BF01228D
:101900008021054802F0A6F800BF0837BD46BDE8B3
:10191000804002B0704700BF0004024080B483B032
:1019200000AF00237B60104B5B6C0F4A43F4804395
:1019300053640D4B5B6C03F480437B607B68002336
:101940003B60094B1B6C084A43F080531364064B01
:101950001B6C03F080533B603B6800BF0C37BD46F7
:101960005DF8047B704700BF0038024080B58AB044
:1019700000AF786007F1140300221A605A609A6081
:10198000DA601A617B681B68174A934227D10023EB
:101990003B61164B5B6C154A43F480735364134BE5
:1019A0005B6C03F480733B613B690023FB600F4B6E
:1019B0001B6B0E4A43F0010313630C4B1B6B03F0CC
:1019C0000103FB60FB6808237B610323BB610023E9
:1019D000FB6107F114031946054801F09FFE00BFA3
:1019E0002837BD4680BD00BF0020014000380240BE
:1019F0000000024080B58CB000AF786007F11C0396
:101A000000221A605A609A60DA601A617B681B686B
:101A10004A4A93423ED14A4B1B680133484A1360FD
:101A2000474B1B68012B0DD10023BB61454B1B6C41
:101A3000444A43F000731364424B1B6C03F0007381
:101A4000BB61BB6900237B613E4B1B6B3D4A43F08E
:101A5000010313633B4B1B6B03F001037B617B6949
:101A60004FF4C053FB6102233B6200237B620323DC
:101A7000BB620923FB6207F11C031946324801F0DF
:101A80004DFE00220021142001F011FE142001F06F
:101A90002AFE4FE07B681B682C4A93424AD1002300
:101AA0003B61284B1B6C274A43F080631364254B32
:101AB0001B6C03F080633B613B69214B1B68013366
:101AC0001F4A13601E4B1B68012B0DD10023FB60C6
:101AD0001C4B1B6C1B4A43F000731364194B1B6CAB
:101AE00003F00073FB60FB680023BB60154B1B6BAE
:101AF000144A43F002031363124B1B6B03F00203FF
:101B0000BB60BB686023FB6102233B6200237B62F6
:101B10000323BB620923FB6207F11C0319460C482F
:101B200001F0FCFD00220021412001F0C0FD412018
:101B300001F0D9FD00BF3037BD4680BD00640040D4
:101B4000C803002000380240000002400068004046
:101B50000004024080B58AB000AF786007F114033A
:101B600000221A605A609A60DA601A617B681B680A
:101B7000284A934249D100233B61274B5B6C264A9C
:101B800043F480535364244B5B6C03F480533B61F8
:101B90003B690023FB60204B1B6B1F4A43F0010392
:101BA00013631D4B1B6B03F00103FB60FB680023F9
:101BB000BB60194B1B6B184A43F002031363164BAF
:101BC0001B6B03F00203BB60BB68C0237B61022375
:101BD000BB610023FB6103233B6205237B6207F1AA
:101BE000140319460D4801F099FD08237B61022377
:101BF000BB610023FB6103233B6205237B6207F18A
:101C000014031946064801F089FD00BF2837BD4678
:101C100080BD00BF0030014000380240000002409B
:101C20000004024080B584B000AF78607B681B6818
:101C3000B3F1804F15D10023FB600C4B1B6C0B4A9A
:101C400043F001031364094B1B6C03F00103FB60B9
:101C5000FB68002200211C2001F029FD1C2001F05E
:101C600042FD00BF1037BD4680BD00BF00380240B6
:101C700080B400AFFEE780B400AFFEE780B400AFF1
:101C8000FEE780B400AFFEE780B400AFFEE780B4AB
:101C900000AF00BFBD465DF8047B704780B400AF65
:101CA00000BFBD465DF8047B704780B400AF00BF45
:101CB000BD465DF8047B704780B500AF00F0B4F915
:101CC00000BF80BD80B500AF024801F0F0F900BF51
:101CD00080BD00BFE000002080B500AF024803F0E7
:101CE0006DF900BF80BD00BF8801002080B500AF46
:101CF000024801F0DCF900BF80BD00BF08010020F0
:101D000080B586B000AF7860144A154BD31A7B615A
:101D10007B693B61134B1B68002B02D1114B124AAC
:101D20001A60104B1A687B6813443A699A4207D2CA
:101D300003F006FD03460C221A604FF0FF3309E062
:101D4000084B1B68FB60074B1A687B681344054A05
:101D50001360FB6818461837BD4680BD000002209E
:101D600000040000CC0300203004002080B400AF49
:101D7000064BD3F88830054A43F47003C2F8883024
:101D800000BFBD465DF8047B704700BF00ED00E07A
:101D900080B483B000AF7860054A7B681360054B60
:101DA00000221A6000BF0C37BD465DF8047B704707
:101DB000D0030020D403002080B400AF4A4B1B683E
:101DC000002B0BDD484B1B68013B474A1360464B19
:101DD0001B68002B02DC454B01221A60444B1B6838
:101DE000002B0BDD424B1B68013B414A1360404B0B
:101DF0001B68002B02DC3F4B01221A603E4B1B6824
:101E0000002B0BDD3C4B1B68013B3B4A13603A4BFC
:101E10001B68002B02DC394B01221A60384B1B680F
:101E2000002B0BDD364B1B68013B354A1360344BEE
:101E30001B68002B02DC334B01221A60324B1B68FB
:101E4000002B0BDD304B1B68013B2F4A13602E4BE0
:101E50001B68002B02DC2D4B01221A602C4B1B68E7
:101E6000002B0BDD2A4B1B68013B294A1360284BD2
:101E70001B68002B02DC274B01221A60264B1B68D3
:101E8000002B0BDD244B1B68013B234A1360224BC4
:101E90001B68002B02DC214B01221A60204B1B68BF
:101EA000002B0BDD1E4B1B68013B1D4A13601C4BB6
:101EB0001B68002B02DC1B4B01221A601A4B1B68AB
:101EC000002B0BDD184B1B68013B174A1360164BA8
:101ED0001B68002B02DC154B01221A6000BFBD46B7
:101EE0005DF8047B704700BFD0030020D4030020BE
:101EF000D8030020DC030020E0030020E4030020DE
:101F0000E8030020EC030020F0030020F40300208D
:101F1000F8030020FC03002000040020040400203B
:101F2000080400200C0400201004002014040020E9
:101F3000DFF834D00D480E490E4A002302E0D45891
:101F4000C4500433C4188C42F9D30B4A0B4C002301
:101F500001E013600432A242FBD3FFF707FF03F056
:101F6000F5FBFEF79FFD70470000022000000020F7
:101F70007800002090690008780000202C040020E0
:101F8000FEE7000080B500AF0E4B1B680D4A43F41E
:101F9000007313600B4B1B680A4A43F480631360A1
:101FA000084B1B68074A43F480731360032001F059
:101FB00073FB0F2000F008F8FFF7B0FC0023184671
:101FC00080BD00BF003C024080B582B000AF7860A9
:101FD000124B1A68124B1B7819464FF47A73B3FBF5
:101FE000F1F3B2FBF3F3184601F08BFB0346002B31
:101FF00001D001230EE07B680F2B0AD800227968FC
:102000004FF0FF3001F053FB064A7B68136000235A
:1020100000E0012318460837BD4680BD08000020B7
:10202000100000200C00002080B400AF064B1B788D
:102030001A46064B1B681344044A136000BFBD4692
:102040005DF8047B704700BF1000002018040020DA
:1020500080B400AF034B1B681846BD465DF8047B97
:10206000704700BF1804002080B584B000AF7860CE
:10207000FFF7EEFFB8607B68FB60FB68B3F1FF3FE2
:1020800005D00A4B1B781A46FB681344FB6000BF5F
:10209000FFF7DEFF0246BB68D31AFA689A42F7D808
:1020A00000BF00BF1037BD4680BD00BF100000203C
:1020B00080B584B000AF78600023FB737B68002B91
:1020C00001D1012333E07B681B6C002B09D17868B8
:1020D000FFF74CFC7B6800225A647B68002283F87F
:1020E0003C207B681B6C03F01003002B18D17B682D
:1020F0001B6C23F4885323F0020343F002027B6835
:102100001A64786800F0A4FA7B6800225A647B683D
:102110001B6C23F0030343F001027B681A6401E0A7
:102120000123FB737B68002283F83C20FB7B18466D
:102130001037BD4680BD000080B485B000AF786028
:102140000023BB607B6893F83C30012B01D1022354
:10215000B2E07B68012283F83C207B681B689B68A7
:1021600003F00103012B18D07B681B689A687B6819
:102170001B6842F001029A60524B1B68524AA2FB54
:1021800003239A0C13465B001344BB6002E0BB6858
:10219000013BBB60BB68002BF9D17B681B689B6867
:1021A00003F00103012B7AD17B681B6C23F4E063FD
:1021B00023F0010343F480727B681A647B681B6818
:1021C0005B6803F48063002B07D07B681B6C23F4EF
:1021D000405343F480527B681A647B681B6C03F4A1
:1021E0008053B3F5805F06D17B685B6C23F00602F9
:1021F0007B685A6402E07B6800225A647B68002294
:1022000083F83C20314BFB607B681B686FF0220237
:102210001A60FB685B6803F01F03002B2AD17B6800
:102220001B682B4A934215D07B681B68294A93424E
:1022300005D1264B5B6803F01F03002B0AD07B6897
:102240001B68254A934236D1204B5B6803F010038C
:10225000002B30D17B681B689B6803F04053002B38
:1022600029D17B681B689A687B681B6842F08042B2
:102270009A6020E07B681B68154A93421BD17B68FB
:102280001B689B6803F04053002B14D17B681B68CC
:102290009A687B681B6842F080429A600BE07B681A
:1022A0001B6C43F010027B681A647B685B6C43F024
:1022B00001027B685A64002318461437BD465DF856
:1022C000047B70470800002083DE1B43002301408D
:1022D00000200140002101400022014080B584B06F
:1022E00000AF786039600023FB607B681B689B68E7
:1022F00003F48063B3F5806F13D17B681B689B6820
:1023000003F48073B3F5807F0BD17B681B6C43F0C3
:1023100020027B681A647B68002283F83C2001233A
:1023200063E0FFF795FEF86021E03B68B3F1FF3F03
:102330001DD03B68002B07D0FFF78AFE0246FB68E2
:10234000D31A3A689A4212D27B681B681B6803F062
:102350000203022B0BD07B681B6C43F004027B68EA
:102360001A647B68002283F83C2003233DE07B68ED
:102370001B681B6803F00203022BD6D17B681B6825
:102380006FF012021A607B681B6C43F400727B686A
:102390001A647B681B689B6803F04053002B23D1B1
:1023A0007B681B7E002B1FD17B681B68DB6A03F4F4
:1023B0007003002B06D07B681B689B6803F4806366
:1023C000002B11D17B681B6C23F480727B681A642C
:1023D0007B681B6C03F48053002B05D17B681B6C5E
:1023E00043F001027B681A64002318461037BD468B
:1023F00080BD80B483B000AF78607B681B68DB6C05
:1024000018460C37BD465DF8047B704780B485B034
:1024100000AF786039600023BB607B6893F83C3084
:10242000012B01D1022305E17B68012283F83C20C6
:102430003B681B68092B25D97B681B68D9683B68FA
:102440001B689BB21A4613465B0013441E3B0722CF
:1024500002FA03F3DA437B681B680A40DA607B68A0
:102460001B68D9683B689A683B681B689BB2184632
:1024700003465B0003441E3B9A407B681B680A438B
:10248000DA6022E07B681B6819693B681B689BB2B5
:102490001A4613465B001344072202FA03F3DA4399
:1024A0007B681B680A401A617B681B6819693B6876
:1024B0009A683B681B689BB2184603465B0003445E
:1024C0009A407B681B680A431A613B685B68062B6D
:1024D00024D87B681B68596B3B685A6813469B007D
:1024E0001344053B1F2202FA03F3DA437B681B689F
:1024F0000A405A637B681B68596B3B681B689BB238
:1025000018463B685A6813469B001344053B00FA83
:1025100003F27B681B680A435A634CE03B685B68C4
:102520000C2B24D87B681B68196B3B685A681346D0
:102530009B001344233B1F2202FA03F3DA437B6818
:102540001B680A401A637B681B68196B3B681B6831
:102550009BB218463B685A6813469B001344233BC2
:1025600000FA03F27B681B680A431A6323E07B6866
:102570001B68D96A3B685A6813469B001344413B69
:102580001F2202FA03F3DA437B681B680A40DA620F
:102590007B681B68D96A3B681B689BB218463B681E
:1025A0005A6813469B001344413B00FA03F27B68D0
:1025B0001B680A43DA62224BFB607B681B68214A76
:1025C000934209D13B681B68122B05D1FB685B68FD
:1025D00043F48002FB685A607B681B68194A934287
:1025E00023D13B681B68102B03D03B681B68112B61
:1025F0001BD1FB685B6843F40002FB685A603B68D0
:102600001B68102B11D1104B1B68104AA2FB03232F
:102610009A0C13469B0013445B00BB6002E0BB684E
:10262000013BBB60BB68002BF9D17B68002283F8BB
:102630003C20002318461437BD465DF8047B7047E4
:1026400000230140002001400800002083DE1B43DE
:1026500080B485B000AF7860794BFB60FB685B6845
:1026600023F44032FB685A60FB685A687B685B68F9
:102670001A43FB685A607B681B685A687B681B6852
:1026800022F480725A607B681B6859687B681B69FA
:102690001A027B681B680A435A607B681B685A6889
:1026A0007B681B6822F040725A607B681B6859681F
:1026B0007B689A687B681B680A435A607B681B6862
:1026C0009A687B681B6822F400629A607B681B68CA
:1026D00099687B68DA687B681B680A439A607B6844
:1026E0009B6A584A934222D07B681B689A687B6831
:1026F0001B6822F070629A607B681B6899687B682F
:102700009A6A7B681B680A439A607B681B689A68B0
:102710007B681B6822F040529A607B681B6899684E
:102720007B68DA6A7B681B680A439A600FE07B6803
:102730001B689A687B681B6822F070629A607B68ED
:102740001B689A687B681B6822F040529A607B681D
:102750001B689A687B681B6822F002029A607B689B
:102760001B6899687B681B7E5A007B681B680A435C
:102770009A607B6893F82030002B1BD07B681B6825
:102780005A687B681B6842F400625A607B681B6869
:102790005A687B681B6822F460425A607B681B6839
:1027A00059687B685B6A013B5A037B681B680A4374
:1027B0005A6007E07B681B685A687B681B6822F4D4
:1027C00000625A607B681B68DA6A7B681B6822F4C7
:1027D0007002DA627B681B68D96A7B68DB69013B3F
:1027E0001A057B681B680A43DA627B681B689A6873
:1027F0007B681B6822F400729A607B681B6899688A
:102800007B6893F830305A027B681B680A439A60F1
:102810007B681B689A687B681B6822F480629A60F8
:102820007B681B6899687B685B699A027B681B6898
:102830000A439A6000BF1437BD465DF8047B7047B9
:10284000002301400100000F80B584B000AF786024
:102850007B68002B01D10123EDE07B6893F82030E9
:10286000DBB2002B02D17868FFF7C4F87B681B68E5
:102870001A687B681B6842F001021A60FFF7E8FBE8
:10288000F86012E0FFF7E4FB0246FB68D31A0A2B5C
:102890000BD97B685B6A43F400327B685A627B68C1
:1028A000052283F820200123C5E07B681B685B6854
:1028B00003F00103002BE5D07B681B681A687B6876
:1028C0001B6822F002021A60FFF7C2FBF86012E0F8
:1028D000FFF7BEFB0246FB68D31A0A2B0BD97B68B5
:1028E0005B6A43F400327B685A627B68052283F896
:1028F000202001239FE07B681B685B6803F00203D4
:10290000002BE5D17B681B7E012B08D17B681B68FF
:102910001A687B681B6842F080021A6007E07B68D7
:102920001B681A687B681B6822F080021A607B684B
:102930005B7E012B08D17B681B681A687B681B686B
:1029400042F040021A6007E07B681B681A687B68E7
:102950001B6822F040021A607B689B7E012B08D125
:102960007B681B681A687B681B6842F020021A604B
:1029700007E07B681B681A687B681B6822F02002EE
:102980001A607B68DB7E012B08D17B681B681A68A4
:102990007B681B6822F010021A6007E07B681B68E6
:1029A0001A687B681B6842F010021A607B681B7F04
:1029B000012B08D17B681B681A687B681B6842F092
:1029C00008021A6007E07B681B681A687B681B684E
:1029D00022F008021A607B685B7F012B08D17B68BC
:1029E0001B681A687B681B6842F004021A6007E0E3
:1029F0007B681B681A687B681B6822F004021A60F7
:102A00007B689A687B68DB681A437B681B691A439A
:102A10007B685B6942EA03017B685B685A1E7B68DE
:102A20001B680A43DA617B6800225A627B680122D4
:102A300083F82020002318461037BD4680BD0000D3
:102A400080B487B000AF786039607B681B687B61B9
:102A50007B6893F82030FB74FB7C012B03D0FB7C5C
:102A6000022B40F0BE80654B7B617B69D3F800325E
:102A700043F001027B69C3F800227B69D3F800327E
:102A800023F47C527B69C3F800227B69D3F80022CF
:102A90003B685B6A1B021A437B69C3F800223B68F0
:102AA0005B6903F01F03012202FA03F3FB607B69F9
:102AB000D3F81C22FB68DB431A407B69C3F81C2255
:102AC0003B68DB69002B23D17B69D3F80C22FB68C0
:102AD000DB431A407B69C3F80C223B68DB681904AE
:102AE0003B685B689BB23A68526919437B6948321C
:102AF00043F832103B689B6819043B681B689AB224
:102B00003B685B690A4379694833DB000B445A60D0
:102B10003B68DB69012B22D17B69D3F80C22FB686F
:102B20001A437B69C3F80C223B681B6819043B6895
:102B30005B689BB23A68526919437B69483243F833
:102B400032103B689B6819043B68DB689AB23B68AB
:102B50005B690A4379694833DB000B445A603B6880
:102B60009B69002B09D17B69D3F80422FB68DB4306
:102B70001A407B69C3F8042207E07B69D3F804227A
:102B8000FB681A437B69C3F804223B681B69002B6E
:102B900009D17B69D3F81422FB68DB431A407B69B7
:102BA000C3F8142207E07B69D3F81422FB681A43A8
:102BB0007B69C3F814223B681B6A012B07D17B6930
:102BC000D3F81C22FB681A437B69C3F81C227B697B
:102BD000D3F8003223F001027B69C3F800220023FE
:102BE00006E07B685B6A43F480227B685A620123BB
:102BF00018461C37BD465DF8047B704700640040F2
:102C000080B584B000AF78607B6893F82030DBB289
:102C1000012B2ED17B68022283F820207B681B6861
:102C20001A687B681B6822F001021A60FFF710FA2D
:102C3000F86012E0FFF70CFA0246FB68D31A0A2B81
:102C40000BD97B685B6A43F400327B685A627B680D
:102C5000052283F82020012312E07B681B685B6853
:102C600003F00103002BE5D17B6800225A620023A8
:102C700006E07B685B6A43F400227B685A620123AA
:102C800018461037BD4680BD80B489B000AFF860EB
:102C9000B9607A603B60FB6893F82030FB77FB6893
:102CA0001B689B68BB61FB7F012B03D0FB7F022B62
:102CB00040F0B880BB6903F08063002B0AD1BB6988
:102CC00003F00063002B05D1BB6903F08053002B98
:102CD00000F0A080BB691B0E03F003037B617B69DE
:102CE000022B07D9FB685B6A43F40002FB685A6257
:102CF00001239EE001227B699A403B681A60BB6811
:102D00009B68002B0DD1BB681B685A05BB68DB684C
:102D1000F96809681A437B6918331B010B441A6070
:102D20000FE0BB685B68DA00BB689B681A43BB684E
:102D3000DB68F96809681A437B6918331B010B4487
:102D40001A60FB681968BB681A697B6918331B0134
:102D50000B4404331A60BB681B7D012B11D1FB6847
:102D60001A687B6918331B01134404331B68FA6823
:102D7000116843F480727B6918331B010B440433E0
:102D80001A607B6807331B781A067B6806331B784A
:102D90001B041A437B6805331B781B0213437A68B4
:102DA000043212781046FA68116843EA00027B691F
:102DB0001B010B4403F5C6731A607B6803331B7851
:102DC0001A067B6802331B781B041A437B680133A5
:102DD0001B781B0213437A6812781046FA68116850
:102DE00043EA00027B691B010B4403F5C4731A60BC
:102DF000FB681A687B6918331B0113441B68FA6867
:102E0000116843F001027B6918331B010B441A60FF
:102E100000230EE0FB685B6A43F40012FB685A6211
:102E2000012306E0FB685B6A43F48022FB685A6278
:102E3000012318462437BD465DF8047B704780B4F3
:102E400087B000AFF860B9607A603B60FB6893F8C8
:102E50002030FB75FB7D012B03D0FB7D022B40F066
:102E6000F380BB68002B0ED1FB681B68DB6803F0A6
:102E70000303002B16D1FB685B6A43F40012FB6866
:102E80005A620123E7E0FB681B681B6903F0030338
:102E9000002B07D1FB685B6A43F40012FB685A629F
:102EA0000123D8E0FB681A68BB681B331B0113447D
:102EB0001B6803F004027B689A607B689B68002BA8
:102EC0000CD1FB681A68BB681B331B0113441B68D9
:102ED0005B0DC3F30A027B681A600BE0FB681A689B
:102EE000BB681B331B0113441B68DB0823F06042E3
:102EF0007B685A60FB681A68BB681B331B0113446C
:102F00001B6803F002027B68DA60FB681A68BB6822
:102F10001B331B01134404331B6803F00F027B684F
:102F20001A61FB681A68BB681B331B011344043326
:102F30001B681B0ADAB27B689A61FB681A68BB6877
:102F40001B331B01134404331B681B0C9AB27B68B0
:102F50005A61FB681A68BB681B01134403F5DC73F4
:102F60001B68DAB23B681A70FB681A68BB681B0101
:102F7000134403F5DC731B681A0A3B680133D2B2B1
:102F80001A70FB681A68BB681B01134403F5DC73F5
:102F90001B681A0C3B680233D2B21A70FB681A68BD
:102FA000BB681B01134403F5DC731B681A0E3B68F6
:102FB0000333D2B21A70FB681A68BB681B01134452
:102FC00003F5DE731A683B680433D2B21A70FB68EB
:102FD0001A68BB681B01134403F5DE731B681A0AE9
:102FE0003B680533D2B21A70FB681A68BB681B01D4
:102FF000134403F5DE731B681A0C3B680633D2B228
:103000001A70FB681A68BB681B01134403F5DE7372
:103010001B681A0E3B680733D2B21A70BB68002BCC
:1030200008D1FB681B68DA68FB681B6842F0200265
:10303000DA6007E0FB681B681A69FB681B6842F0EE
:1030400020021A61002306E0FB685B6A43F48022D9
:10305000FB685A62012318461C37BD465DF8047BA5
:10306000704780B485B000AF786039607B6893F8B2
:103070002030FB73FB7B012B02D0FB7B022B09D1A1
:103080007B681B6859697B681B683A680A435A6108
:10309000002306E07B685B6A43F480227B685A6207
:1030A000012318461437BD465DF8047B704780B590
:1030B0008AB000AF786000237B627B681B685B6925
:1030C0003B627B681B685B68FB617B681B689B6875
:1030D000BB617B681B68DB687B617B681B681B6965
:1030E0003B617B681B689B69FB603B6A03F00103E3
:1030F000002B7CD0BB6903F00103002B23D07B683D
:103100001B6801229A60BB6903F00203002B03D005
:10311000786800F083F916E0BB6903F00403002B24
:1031200004D07B6A43F400637B620CE0BB6903F06C
:103130000803002B04D07B6A43F480537B6202E0D7
:10314000786800F089F9BB6903F48073002B24D000
:103150007B681B684FF480729A60BB6903F400734C
:10316000002B03D0786800F063F916E0BB6903F424
:103170008063002B04D07B6A43F400537B620CE035
:10318000BB6903F40063002B04D07B6A43F48043E3
:103190007B6202E0786800F069F9BB6903F4803370
:1031A000002B24D07B681B684FF480329A60BB6987
:1031B00003F40033002B03D0786800F043F916E0E5
:1031C000BB6903F48023002B04D07B6A43F40043E3
:1031D0007B620CE0BB6903F40023002B04D07B6A04
:1031E00043F480337B6202E0786800F049F93B6A7F
:1031F00003F00803002B0CD07B6903F01003002BB5
:1032000007D07B6A43F400737B627B681B681022E3
:10321000DA603B6A03F00403002B0BD07B6903F0F8
:103220000803002B06D07B681B680822DA607868E8
:1032300000F030F93B6A03F00203002B09D07B68F1
:103240001B68DB6803F00303002B02D07868FDF7EE
:10325000A5FE3B6A03F04003002B0CD03B6903F052
:103260001003002B07D07B6A43F480637B627B688A
:103270001B6810221A613B6A03F02003002B0BD05D
:103280003B6903F00803002B06D07B681B6808220B
:103290001A61786800F008F93B6A03F01003002B0C
:1032A00009D07B681B681B6903F00303002B02D065
:1032B0007868FDF793FF3B6A03F40033002B0BD0D3
:1032C000FB6903F01003002B06D07B681B681022FB
:1032D0005A60786800F0F2F83B6A03F48033002B00
:1032E0000BD0FB6903F00803002B06D07B681B683A
:1032F00008225A60786800F0EBF83B6A03F4004358
:10330000002B7BD0FB6903F00403002B72D03B6AD7
:1033100003F48073002B08D0FB6803F00103002B3B
:1033200003D07B6A43F001037B623B6A03F40073C2
:10333000002B08D0FB6803F00203002B03D07B6A4C
:1033400043F002037B623B6A03F48063002B08D0E6
:10335000FB6803F00403002B03D07B6A43F00403F3
:103360007B623B6A03F40063002B43D0FB6803F0ED
:103370007003002B3ED0FB6803F07003602B2BD052
:10338000602B2ED8502B22D0502B2AD8402B19D06E
:10339000402B26D8302B10D0302B22D8102B02D027
:1033A000202B05D01DE07B6A43F008037B6219E007
:1033B0007B6A43F010037B6214E07B6A43F02003D6
:1033C0007B620FE07B6A43F040037B620AE07B6A2A
:1033D00043F080037B6205E07B6A43F480737B6289
:1033E00000E000BF7B681B689A697B681B6822F05D
:1033F00070029A617B681B6804225A607B6A002B0A
:1034000008D07B685A6A7B6A1A437B685A6278687C
:1034100000F068F800BF2837BD4680BD80B483B097
:1034200000AF786000BF0C37BD465DF8047B704785
:1034300080B483B000AF786000BF0C37BD465DF844
:10344000047B704780B483B000AF786000BF0C3756
:10345000BD465DF8047B704780B483B000AF7860F0
:1034600000BF0C37BD465DF8047B704780B483B065
:1034700000AF786000BF0C37BD465DF8047B704735
:1034800080B483B000AF786000BF0C37BD465DF8F4
:10349000047B704780B483B000AF786000BF0C3706
:1034A000BD465DF8047B704780B483B000AF7860A0
:1034B00000BF0C37BD465DF8047B704780B483B015
:1034C00000AF786000BF0C37BD465DF8047B7047E5
:1034D00080B483B000AF786000BF0C37BD465DF8A4
:1034E000047B704780B483B000AF786000BF0C37B6
:1034F000BD465DF8047B704780B485B000AF78604E
:103500007B6803F00703FB600C4BDB68BB60BA68A9
:103510004FF6FF031340BB60FB681A02BB681343FE
:1035200043F0BF6343F40033BB60044ABB68D3601D
:1035300000BF1437BD465DF8047B704700ED00E026
:1035400080B400AF044BDB681B0A03F00703184686
:10355000BD465DF8047B704700ED00E080B483B0A9
:1035600000AF0346FB7197F90730002B0BDBFB79AB
:1035700003F01F02074997F907305B09012000FAA1
:1035800002F241F8232000BF0C37BD465DF8047BF2
:10359000704700BF00E100E080B483B000AF034695
:1035A0003960FB7197F90730002B0ADB3B68DAB210
:1035B0000C4997F907301201D2B20B4483F800236B
:1035C0000AE03B68DAB20849FB7903F00F03043BD9
:1035D0001201D2B20B441A7600BF0C37BD465DF81B
:1035E000047B704700E100E000ED00E080B489B0AA
:1035F00000AFF860B9607A60FB6803F00703FB6115
:10360000FB69C3F10703042B28BF0423BB61FB69DB
:103610000433062B02D9FB69033B00E000237B61E6
:103620004FF0FF32BB6902FA03F3DA43BB681A407A
:103630007B699A404FF0FF317B6901FA03F3D9436C
:103640007B680B40134318462437BD465DF8047B66
:103650007047000080B582B000AF78607B68013BA6
:10366000B3F1807F01D301230FE00A4A7B68013B5D
:1036700053600F214FF0FF30FFF78EFF054B002204
:103680009A60044B07221A60002318460837BD468B
:1036900080BD00BF10E000E080B582B000AF786070
:1036A0007868FFF729FF00BF0837BD4680BD80B5A9
:1036B00086B000AF0346B9607A60FB7300237B617C
:1036C000FFF73EFF78617A68B9687869FFF78EFF87
:1036D000024697F90F3011461846FFF75DFF00BF0D
:1036E0001837BD4680BD80B582B000AF0346FB7180
:1036F00097F907301846FFF731FF00BF0837BD467E
:1037000080BD80B582B000AF78607868FFF7A2FF17
:10371000034618460837BD4680BD000080B489B016
:1037200000AF7860396000237B6100233B61002398
:10373000BB610023FB616BE10122FB6902FA03F329
:103740007B613B681B687A6913403B613A697B691E
:103750009A4240F05A813B685B6803F00303012BF7
:1037600005D03B685B6803F00303022B30D17B6814
:103770009B68BB61FB695B00032202FA03F3DB4336
:10378000BA691340BB613B68DA68FB695B0002FA07
:1037900003F3BA691343BB617B68BA699A607B68BB
:1037A0005B68BB610122FB6902FA03F3DB43BA6980
:1037B0001340BB613B685B681B0903F00102FB69B6
:1037C00002FA03F3BA691343BB617B68BA695A60B2
:1037D0003B685B6803F00303032B17D07B68DB684F
:1037E000BB61FB695B00032202FA03F3DB43BA69A6
:1037F0001340BB613B689A68FB695B0002FA03F304
:10380000BA691343BB617B68BA69DA603B685B687D
:1038100003F00303022B23D1FB69DA087B6808322B
:1038200053F82230BB61FB6903F007039B000F22B2
:1038300002FA03F3DB43BA691340BB613B681A69C0
:10384000FB6903F007039B0002FA03F3BA69134311
:10385000BB61FB69DA087B680832B96943F822105A
:103860007B681B68BB61FB695B00032202FA03F300
:10387000DB43BA691340BB613B685B6803F003023A
:10388000FB695B0002FA03F3BA691343BB617B680F
:10389000BA691A603B685B6803F44033002B00F0A0
:1038A000B4800023FB60604B5B6C5F4A43F4804351
:1038B00053645D4B5B6C03F48043FB60FB685B4AC5
:1038C000FB699B08023352F82330BB61FB6903F0AC
:1038D00003039B000F2202FA03F3DB43BA69134090
:1038E000BB617B68524A93422BD07B68514A93421A
:1038F00025D07B68504A93421FD07B684F4A934241
:1039000019D07B684E4A934213D07B684D4A93424C
:103910000DD07B684C4A934207D07B684B4A934258
:1039200001D107230EE008230CE006230AE005235B
:1039300008E0042306E0032304E0022302E001235D
:1039400000E00023FA6902F0030292009340BA6992
:103950001343BB613549FB699B080233BA6941F8DF
:1039600023203B4B9B68BB613B69DB43BA69134037
:10397000BB613B685B6803F48013002B03D0BA691A
:103980003B691343BB61324ABB699360304BDB68D0
:10399000BB613B69DB43BA691340BB613B685B6851
:1039A00003F40013002B03D0BA693B691343BB61D6
:1039B000274ABB69D360264B5B68BB613B69DB432D
:1039C000BA691340BB613B685B6803F40033002BAA
:1039D00003D0BA693B691343BB611D4ABB6953609D
:1039E0001B4B1B68BB613B69DB43BA691340BB617E
:1039F0003B685B6803F48033002B03D0BA693B69F2
:103A00001343BB61124ABB691360FB690133FB615D
:103A1000FB690F2B7FF690AE00BF00BF2437BD4679
:103A20005DF8047B704700BF003802400038014059
:103A3000000002400004024000080240000C024066
:103A4000001002400014024000180240001C024016
:103A5000003C014080B483B000AF78600B467B80AF
:103A600013467B707B78002B03D07A887B689A6141
:103A700003E07B881A047B689A6100BF0C37BD465F
:103A80005DF8047B7047000080B586B000AF7860B9
:103A90007B68002B01D1012367E27B681B6803F080
:103AA0000103002B75D0884B9B6803F00C03042B9B
:103AB0000CD0854B9B6803F00C03082B12D1824B72
:103AC0005B6803F48003B3F5800F0BD17E4B1B685A
:103AD00003F40033002B5BD07B685B68002B57D16D
:103AE000012342E27B685B68B3F5803F06D1764BE9
:103AF0001B68754A43F4803313601DE07B685B6884
:103B0000B3F5A02F0CD1704B1B686F4A43F4802390
:103B100013606D4B1B686C4A43F4803313600BE0F9
:103B2000694B1B68684A23F480331360664B1B683B
:103B3000654A23F4802313607B685B68002B13D0F5
:103B4000FEF786FA386108E0FEF782FA02463B6922
:103B5000D31A642B01D9032307E25B4B1B6803F4E0
:103B60000033002BF0D014E0FEF772FA386108E061
:103B7000FEF76EFA02463B69D31A642B01D9032380
:103B8000F3E1514B1B6803F40033002BF0D100E04C
:103B900000BF7B681B6803F00203002B63D04A4B15
:103BA0009B6803F00C03002B0BD0474B9B6803F082
:103BB0000C03082B1CD1444B5B6803F48003002BDF
:103BC00016D1414B1B6803F00203002B05D07B6824
:103BD000DB68012B01D00123C7E13B4B1B6823F0BD
:103BE000F8027B681B69DB00374913430B603AE03E
:103BF0007B68DB68002B20D0344B01221A60FEF773
:103C000027FA386108E0FEF723FA02463B69D31A27
:103C1000022B01D90323A8E12B4B1B6803F00203FD
:103C2000002BF0D0284B1B6823F0F8027B681B693F
:103C3000DB00254913430B6015E0244B00221A607A
:103C4000FEF706FA386108E0FEF702FA02463B6921
:103C5000D31A022B01D9032387E11B4B1B6803F006
:103C60000203002BF0D17B681B6803F00803002BD4
:103C700036D07B685B69002B16D0154B01221A6089
:103C8000FEF7E6F9386108E0FEF7E2F902463B6923
:103C9000D31A022B01D9032367E10B4B5B6F03F0AF
:103CA0000203002BF0D01BE0094B00221A60FEF744
:103CB000CFF938610EE0FEF7CBF902463B69D31A23
:103CC000022B07D9032350E100380240000047428D
:103CD000800E4742884B5B6F03F00203002BEAD152
:103CE0007B681B6803F00403002B00F0978000231F
:103CF000FB75814B1B6C03F08053002B0FD100230D
:103D0000BB607D4B1B6C7C4A43F0805313647A4B41
:103D10001B6C03F08053BB60BB680123FB75774BC2
:103D20001B6803F48073002B18D1744B1B68734A13
:103D300043F480731360FEF78BF9386108E0FEF7F7
:103D400087F902463B69D31A022B01D903230CE100
:103D50006A4B1B6803F48073002BF0D07B689B6870
:103D6000012B06D1644B1B6F634A43F001031367B9
:103D70001CE07B689B68052B0CD15F4B1B6F5E4A78
:103D800043F0040313675C4B1B6F5B4A43F0010372
:103D900013670BE0584B1B6F574A23F0010313675F
:103DA000554B1B6F544A23F0040313677B689B68D1
:103DB000002B15D0FEF74CF938610AE0FEF748F900
:103DC00002463B69D31A41F28832934201D9032358
:103DD000CBE0494B1B6F03F00203002BEED014E045
:103DE000FEF736F938610AE0FEF732F902463B6920
:103DF000D31A41F28832934201D90323B5E03E4BF6
:103E00001B6F03F00203002BEED1FB7D012B05D1CC
:103E1000394B1B6C384A23F0805313647B689B69D1
:103E2000002B00F0A180344B9B6803F00C03082B9F
:103E30005CD07B689B69022B41D1314B00221A6018
:103E4000FEF706F9386108E0FEF702F902463B6921
:103E5000D31A022B01D9032387E0274B1B6803F0F9
:103E60000073002BF0D17B68DA697B681B6A1A4308
:103E70007B685B6A9B011A437B689B6A5B08013B1A
:103E80001B041A437B68DB6A1B061B4913434B6008
:103E90001B4B01221A60FEF7DBF8386108E0FEF7E1
:103EA000D7F802463B69D31A022B01D903235CE001
:103EB000114B1B6803F00073002BF0D054E0104B43
:103EC00000221A60FEF7C4F8386108E0FEF7C0F877
:103ED00002463B69D31A022B01D9032345E0064B66
:103EE0001B6803F00073002BF0D13DE07B689B69F9
:103EF000012B07D1012338E0003802400070004058
:103F0000600047421B4B5B68FB607B689B69012B31
:103F100028D0FB6803F480027B68DB699A4221D1D8
:103F2000FB6803F03F027B681B6A9A421AD1FA6869
:103F300047F6C07313407A68526A9201934211D1D6
:103F4000FB6803F440327B689B6A5B08013B1B04FF
:103F50009A4207D1FB6803F070627B68DB6A1B063C
:103F60009A4201D0012300E0002318461837BD46CD
:103F700080BD00BF0038024080B584B000AF7860DB
:103F800039607B68002B01D10123CCE0684B1B68B2
:103F900003F007033A689A420CD9654B3A68D2B2EB
:103FA0001A70634B1B6803F007033A689A4201D00A
:103FB0000123B8E07B681B6803F00203002B20D0CC
:103FC0007B681B6803F00403002B05D0594B9B68EA
:103FD000584A43F4E05393607B681B6803F008037E
:103FE000002B05D0534B9B68524A43F460439360C7
:103FF000504B9B6823F0F0027B689B684D4913434C
:104000008B607B681B6803F00103002B44D07B6846
:104010005B68012B07D1474B1B6803F40033002B6F
:1040200019D101237FE07B685B68022B03D07B689A
:104030005B68032B07D13F4B1B6803F00073002B19
:1040400009D101236FE03B4B1B6803F00203002BF7
:1040500001D1012367E0374B9B6823F003027B68A3
:104060005B68344913438B60FDF7F2FFF8600AE0A8
:10407000FDF7EEFF0246FB68D31A41F28832934205
:1040800001D903234FE02B4B9B6803F00C027B68A4
:104090005B689B009A42EBD1254B1B6803F007033A
:1040A0003A689A420CD2224B3A68D2B21A70204B2C
:1040B0001B6803F007033A689A4201D0012332E0FB
:1040C0007B681B6803F00403002B08D0194B9B6826
:1040D00023F4E0527B68DB68164913438B607B68EE
:1040E0001B6803F00803002B09D0124B9B6823F4D4
:1040F00060427B681B69DB000E4913438B6000F054
:1041000021F802460B4B9B681B0903F00F030A4979
:10411000CB5C22FA03F3094A1360094B1B6818466B
:10412000FDF752FF002318461037BD4680BD00BF83
:10413000003C0240003802403C69000808000020B2
:104140000C0000202DE9B04F90B000AF00237B633E
:104150000023FB6300233B630023BB63594B9B6835
:1041600003F00C03082B0DD0082B00F2A180002BCC
:1041700002D0042B03D09BE0534BBB639BE0534B1B
:10418000BB6398E04F4B5B6803F03F037B634D4B91
:104190005B6803F48003002B28D04A4B5B689B09C3
:1041A00000223B627A623B6AC3F308000021474B5E
:1041B00003FB01F2002300FB03F31344434AA0FB7B
:1041C0000212FA620A46BA62FA6A1344FB627B6B15
:1041D0000022BB61FA61D7E90623D7E90A01FCF79F
:1041E00047F802460B461346FB6353E0354B5B68CA
:1041F0009B0900223B617A613B69C3F3080A4FF0D7
:10420000000B52465B464FF000004FF00001590191
:1042100041EAD261500102460B46B2EB0A0863EB59
:104220000B094FF000024FF000034FEA891343EAF5
:1042300098634FEA8812B2EB080463EB09054FF06C
:1042400000024FF00003EB0043EA5473E20014460F
:104250001D4614EB0A033B6045EB0B037B604FF0FC
:1042600000024FF00003D7E9004529468B022146A2
:1042700043EA915321468A02104619467B6B00227D
:10428000BB60FA60D7E90223FBF7F2FF02460B4658
:104290001346FB630B4B5B681B0C03F003030133FA
:1042A0005B003B63FA6B3B6BB2FBF3F3BB6302E077
:1042B000054BBB6300BFBB6B18464037BD46BDE82E
:1042C000B08F00BF003802400024F40040787D0128
:1042D00080B582B000AF78607B68002B01D10123EC
:1042E0007BE07B685B6A002B08D17B685B68B3F579
:1042F000827F09D07B680022DA6105E07B680022BA
:104300001A617B6800225A617B6800229A627B688E
:1043100093F85130DBB2002B06D17B68002283F882
:1043200050207868FDF716FC7B68022283F8512044
:104330007B681B681A687B681B6822F040021A6061
:104340007B685B6803F482727B689B6803F40443B8
:104350001A437B68DB6803F400631A437B681B69BC
:1043600003F002031A437B685B6903F001031A43FD
:104370007B689B6903F400731A437B68DB6903F075
:1043800038031A437B681B6A03F0800342EA030187
:104390007B689B6A03F400527B681B680A431A60BF
:1043A0007B689B691B0C03F004017B685B6A03F06C
:1043B00010027B681B680A435A607B681B68DA69D5
:1043C0007B681B6822F40062DA617B6800225A6510
:1043D0007B68012283F85120002318460837BD4628
:1043E00080BD80B588B000AFF860B9603B6013460F
:1043F000FB800023FB77FB6893F85030012B01D141
:10440000022326E1FB68012283F85020FDF720FEFD
:10441000B861FB88FB82FB6893F85130DBB2012B5B
:1044200002D00223FB770BE1BB68002B02D0FB8894
:10443000002B02D10123FB7702E1FB68032283F802
:104440005120FB6800225A65FB68BA681A63FB6852
:10445000FA889A86FB68FA88DA86FB6800229A63F3
:10446000FB6800229A87FB680022DA87FB6800223B
:104470005A64FB6800221A64FB689B68B3F5004F1E
:104480000FD1FB681B681A68FB681B6822F04002AA
:104490001A60FB681B681A68FB681B6842F480425C
:1044A0001A60FB681B681B6803F04003402B07D0B1
:1044B000FB681B681A68FB681B6842F040021A60C0
:1044C000FB68DB68B3F5006F4BD1FB685B68002BC2
:1044D00002D0FB8A012B3ED1FB681B6B1A88FB685C
:1044E0001B68DA60FB681B6B9A1CFB681A63FB682D
:1044F000DB8E9BB2013B9AB2FB68DA862BE0FB684D
:104500001B689B6803F00203022B12D1FB681B6B34
:104510001A88FB681B68DA60FB681B6B9A1CFB68D7
:104520001A63FB68DB8E9BB2013B9AB2FB68DA86AA
:1045300011E0FDF78DFD0246BB69D31A3A689A4235
:1045400003D83B68B3F1FF3F02D13B68002B02D197
:104550000323FB7774E0FB68DB8E9BB2002BCED18C
:104560004CE0FB685B68002B02D0FB8A012B40D13A
:10457000FB681A6BFB681B680C3312781A70FB68B7
:104580001B6B5A1CFB681A63FB68DB8E9BB2013BFA
:104590009AB2FB68DA862CE0FB681B689B6803F024
:1045A0000203022B13D1FB681A6BFB681B680C33E8
:1045B00012781A70FB681B6B5A1CFB681A63FB6845
:1045C000DB8E9BB2013B9AB2FB68DA8611E0FDF705
:1045D0003FFD0246BB69D31A3A689A4203D83B684A
:1045E000B3F1FF3F02D13B68002B02D10323FB77DD
:1045F00026E0FB68DB8E9BB2002BCDD1BA6939680F
:10460000F86800F0D9FB0346002B02D0FB6820229B
:104610005A65FB689B68002B0AD100233B61FB684D
:104620001B68DB683B61FB681B689B683B613B69FF
:10463000FB685B6D002B02D00123FB7700E000BF1D
:10464000FB68012283F85120FB68002283F8502088
:10465000FB7F18462037BD4680BD80B588B002AFCD
:10466000F860B9603B601346FB800023FB75FB6874
:104670005B68B3F5827F12D1FB689B68002B0ED17B
:10468000FB68042283F85120FA883B6800931346A4
:10469000BA68B968F86800F0F1F80346EAE0FB6828
:1046A00093F85030012B01D10223E3E0FB68012293
:1046B00083F85020FDF7CCFC3861FB6893F851304B
:1046C000DBB2012B02D00223FB75CAE0BB68002BD2
:1046D00002D0FB88002B02D10123FB75C1E0FB68EF
:1046E000042283F85120FB6800225A65FB68BA68EF
:1046F0009A63FB68FA889A87FB68FA88DA87FB680E
:1047000000221A63FB6800229A86FB680022DA8680
:10471000FB6800221A64FB6800225A64FB689B68ED
:10472000B3F5004F0FD1FB681B681A68FB681B6864
:1047300022F040021A60FB681B681A68FB681B685D
:1047400022F480421A60FB681B681B6803F0400378
:10475000402B07D0FB681B681A68FB681B6842F097
:1047600040021A60FB68DB68002B62D12EE0FB6818
:104770001B689B6803F00103012B15D1FB681B68C4
:1047800003F10C02FB689B6B1278D2B21A70FB68C3
:104790009B6B5A1CFB689A63FB68DB8F9BB2013BE7
:1047A0009AB2FB68DA8711E0FDF752FC02463B69DA
:1047B000D31A3A689A4203D83B68B3F1FF3F02D15B
:1047C0003B68002B02D10323FB754AE0FB68DB8FBB
:1047D0009BB2002BCBD131E0FB681B689B6803F0D8
:1047E0000103012B13D1FB681B68DA68FB689B6B24
:1047F00092B21A80FB689B6B9A1CFB689A63FB68F9
:10480000DB8F9BB2013B9AB2FB68DA8711E0FDF7C0
:104810001FFC02463B69D31A3A689A4203D83B68A8
:10482000B3F1FF3F02D13B68002B02D10323FB759C
:1048300017E0FB68DB8F9BB2002BCDD13A6939685A
:10484000F86800F053FA0346002B02D0FB682022E0
:104850005A65FB685B6D002B02D00123FB7500E0FD
:1048600000BFFB68012283F85120FB68002283F817
:104870005020FB7D18461837BD4680BD80B58CB0F2
:1048800000AFF860B9607A607B800123FB6200238F
:1048900087F82B30FB6893F85030012B01D10223AD
:1048A0008AE1FB68012283F85020FDF7D1FB786292
:1048B000FB6893F8513087F82330FB685B68FB6135
:1048C0007B887B8397F82330012B0FD0FB69B3F5EE
:1048D000827F07D1FB689B68002B03D197F82330B8
:1048E000042B03D0022387F82B305BE1BB68002B3D
:1048F00005D07B68002B02D07B88002B03D10123DD
:1049000087F82B304EE1FB6893F85130DBB2042B73
:1049100003D0FB68052283F85120FB6800225A650A
:10492000FB687A689A63FB687A88DA87FB687A881A
:104930009A87FB68BA681A63FB687A88DA86FB682C
:104940007A889A86FB6800221A64FB6800225A64FF
:10495000FB681B681B6803F04003402B07D0FB6813
:104960001B681A68FB681B6842F040021A60FB680B
:10497000DB68B3F5006F78D1FB685B68002B02D071
:104980007B8B012B66D1FB681B6B1A88FB681B684D
:10499000DA60FB681B6B9A1CFB681A63FB68DB8E92
:1049A0009BB2013B9AB2FB68DA8653E0FB681B6856
:1049B0009B6803F00203022B1BD1FB68DB8E9BB2CA
:1049C000002B16D0FB6A012B13D1FB681B6B1A88D6
:1049D000FB681B68DA60FB681B6B9A1CFB681A6338
:1049E000FB68DB8E9BB2013B9AB2FB68DA86002340
:1049F000FB62FB681B689B6803F00103012B19D164
:104A0000FB68DB8F9BB2002B14D0FB681B68DA6855
:104A1000FB689B6B92B21A80FB689B6B9A1CFB68CD
:104A20009A63FB68DB8F9BB2013B9AB2FB68DA8723
:104A30000123FB62FDF70CFB02467B6AD31ABA6BBB
:104A40009A4207D8BB6BB3F1FF3F03D0032387F82B
:104A50002B30A7E0FB68DB8E9BB2002BA6D1FB6856
:104A6000DB8F9BB2002BA1D17CE0FB685B68002B45
:104A700002D07B8B012B6BD1FB681A6BFB681B6828
:104A80000C3312781A70FB681B6B5A1CFB681A6394
:104A9000FB68DB8E9BB2013B9AB2FB68DA8657E07B
:104AA000FB681B689B6803F00203022B1CD1FB68A8
:104AB000DB8E9BB2002B17D0FB6A012B14D1FB6855
:104AC0001A6BFB681B680C3312781A70FB681B6B3F
:104AD0005A1CFB681A63FB68DB8E9BB2013B9AB2DF
:104AE000FB68DA860023FB62FB681B689B6803F0A7
:104AF0000103012B19D1FB68DB8F9BB2002B14D073
:104B0000FB681B68DA68FB689B6BD2B21A70FB68A3
:104B10009B6B5A1CFB689A63FB68DB8F9BB2013B63
:104B20009AB2FB68DA870123FB62FDF791FA02462D
:104B30007B6AD31ABA6B9A4203D8BB6BB3F1FF3FBF
:104B400002D1BB6B002B03D1032387F82B3029E064
:104B5000FB68DB8E9BB2002BA2D1FB68DB8F9BB284
:104B6000002B9DD17A6AB96BF86800F025F90346ED
:104B7000002B06D0012387F82B30FB6820225A65D2
:104B800010E0FB689B68002B0BD100237B61FB6866
:104B90001B68DB687B61FB681B689B687B617B69CA
:104BA00000E000BFFB68012283F85120FB6800226F
:104BB00083F8502097F82B3018463037BD4680BD1B
:104BC00080B483B000AF78607B6893F85130DBB27B
:104BD00018460C37BD465DF8047B704780B588B039
:104BE00000AFF860B9603B601346FB71FDF730FA27
:104BF0000246BB6A9B1A3A681344FB61FDF728FA28
:104C0000B861394B1B685B011B0DFA6902FB03F3AA
:104C10007B6154E03B68B3F1FF3F50D0FDF718FAD9
:104C20000246BB69D31AFA699A4202D9FB69002B82
:104C30003DD1FB681B685A68FB681B6822F0E002E4
:104C40005A60FB685B68B3F5827F11D1FB689B6893
:104C5000B3F5004F04D0FB689B68B3F5806F07D1B4
:104C6000FB681B681A68FB681B6822F040021A6028
:104C7000FB689B6AB3F5005F0FD1FB681B681A687D
:104C8000FB681B6822F400521A60FB681B681A68F4
:104C9000FB681B6842F400521A60FB68012283F82B
:104CA0005120FB68002283F85020032317E07B6922
:104CB000002B01D10023FB617B69013B7B61FB6819
:104CC0001B689A68BB681340BA689A420CBF0123FC
:104CD0000023DBB21A46FB799A429BD10023184687
:104CE0002037BD4680BD00BF0800002080B586B0DB
:104CF00002AFF860B9607A60FB685B68B3F5827FE9
:104D000011D1FB689B68B3F5004F04D0FB689B682A
:104D1000B3F5806F07D1FB681B681A68FB681B68D6
:104D200022F040021A60FB685B68B3F5827F2AD1EB
:104D3000FB689B68B3F5806F12D07B680093BB68FB
:104D400000228021F868FFF749FF0346002B2DD091
:104D5000FB685B6D43F02002FB685A65032326E085
:104D60007B680093BB6800220121F868FFF736FFDB
:104D70000346002B1AD0FB685B6D43F02002FB68F2
:104D80005A65032313E07B680093BB68002201216E
:104D9000F868FFF723FF0346002B07D0FB685B6D25
:104DA00043F02002FB685A65032300E00023184605
:104DB0001037BD4680BD000080B588B002AFF860F6
:104DC000B9607A601B4B1B681B4AA2FB03235B0D77
:104DD0004FF47A7202FB03F37B61FB685B68B3F507
:104DE000827F12D17B680093BB6800228021F86823
:104DF000FFF7F4FE0346002B16D0FB685B6D43F013
:104E00002002FB685A6503230FE07B69002B0AD060
:104E10007B69013B7B61FB681B689B6803F0800337
:104E2000802BF2D000E000BF002318461837BD46A3
:104E300080BD00BF08000020819F5E1680B582B053
:104E400000AF78607B68002B01D1012341E07B68D3
:104E500093F83D30DBB2002B06D17B68002283F84B
:104E60003C207868FCF7DEFE7B68022283F83D2058
:104E70007B681A687B6804331946104600F096FA7E
:104E80007B68012283F846207B68012283F83E205C
:104E90007B68012283F83F207B68012283F8402051
:104EA0007B68012283F841207B68012283F842203D
:104EB0007B68012283F843207B68012283F8442029
:104EC0007B68012283F845207B68012283F83D201E
:104ED000002318460837BD4680BD000080B485B069
:104EE00000AF78607B6893F83D30DBB2012B01D0D6
:104EF00001234EE07B68022283F83D207B681B681B
:104F0000DA687B681B6842F00102DA607B681B6824
:104F1000234A934222D07B681B68B3F1804F1DD097
:104F20007B681B681F4A934218D07B681B681E4A27
:104F3000934213D07B681B681C4A93420ED07B6857
:104F40001B681B4A934209D07B681B68194A93422D
:104F500004D07B681B68184A934211D17B681B6898
:104F60009B6803F00703FB60FB68062B10D07B688F
:104F70001B681A687B681B6842F001021A6007E030
:104F80007B681B681A687B681B6842F001021A6024
:104F9000002318461437BD465DF8047B704700BFF8
:104FA000000001400004004000080040000C0040E8
:104FB00000040140004001400018004080B582B06C
:104FC00000AF78607B681B681B6903F00203022B4B
:104FD00022D17B681B68DB6803F00203022B1BD124
:104FE0007B681B686FF002021A617B6801221A77E6
:104FF0007B681B689B6903F00303002B03D0786870
:1050000000F0B5F905E0786800F0A7F9786800F0DD
:10501000B8F97B6800221A777B681B681B6903F06C
:105020000403042B22D17B681B68DB6803F00403B4
:10503000042B1BD17B681B686FF004021A617B682C
:1050400002221A777B681B689B6903F44073002B6C
:1050500003D0786800F08BF905E0786800F07DF9FE
:10506000786800F08EF97B6800221A777B681B68ED
:105070001B6903F00803082B22D17B681B68DB68DF
:1050800003F00803082B1BD17B681B686FF0080234
:105090001A617B6804221A777B681B68DB6903F05E
:1050A0000303002B03D0786800F061F905E078680D
:1050B00000F053F9786800F064F97B6800221A77F1
:1050C0007B681B681B6903F01003102B22D17B68DF
:1050D0001B68DB6803F01003102B1BD17B681B6877
:1050E0006FF010021A617B6808221A777B681B68D0
:1050F000DB6903F44073002B03D0786800F037F9C4
:1051000005E0786800F029F9786800F03AF97B68E2
:1051100000221A777B681B681B6903F00103012BCF
:105120000ED17B681B68DB6803F00103012B07D1FC
:105130007B681B686FF001021A617868FBF724FF37
:105140007B681B681B6903F08003802B0ED17B6892
:105150001B68DB6803F08003802B07D17B681B682A
:105160006FF080021A61786800F0E0FA7B681B68D3
:105170001B6903F04003402B0ED17B681B68DB6882
:1051800003F04003402B07D17B681B686FF040029F
:105190001A61786800F0FFF87B681B681B6903F0F0
:1051A0002003202B0ED17B681B68DB6803F02003F3
:1051B000202B07D17B681B686FF020021A6178688A
:1051C00000F0AAFA00BF0837BD4680BD80B584B0A4
:1051D00000AF786039600023FB737B6893F83C3044
:1051E000012B01D10223B4E07B68012283F83C202B
:1051F0007B68022283F83D207B681B689B68BB604C
:10520000BB6823F07703BB60BB6823F47F43BB60BC
:105210007B681B68BA689A603B681B68B3F5005FDF
:105220003ED0B3F5005F00F28780B3F5805F00F0F9
:105230008680B3F5805F7FD8702B1AD0702B7BD817
:10524000602B50D0602B77D8502B3CD0502B73D88C
:10525000402B58D0402B6FD8302B64D0302B6BD8DC
:10526000202B60D0202B67D8002B5CD0102B5AD07D
:1052700062E07B6818683B6899683B685A683B68DD
:10528000DB6800F0ADF97B681B689B68BB60BB689E
:1052900043F07703BB607B681B68BA689A604FE095
:1052A0007B6818683B6899683B685A683B68DB68AC
:1052B00000F096F97B681B689A687B681B6842F46B
:1052C00080429A603CE07B6818683B6859683B689C
:1052D000DB681A4600F00AF97B681B685021184603
:1052E00000F063F92CE07B6818683B6859683B68FC
:1052F000DB681A4600F029F97B681B6860211846B4
:1053000000F053F91CE07B6818683B6859683B68FB
:10531000DB681A4600F0EAF87B681B6840211846F3
:1053200000F043F90CE07B681A683B681B6819467B
:10533000104600F03AF903E00123FB7300E000BFE0
:105340007B68012283F83D207B68002283F83C20A3
:10535000FB7B18461037BD4680BD80B483B000AFDC
:10536000786000BF0C37BD465DF8047B704780B4A1
:1053700083B000AF786000BF0C37BD465DF8047B9A
:10538000704780B483B000AF786000BF0C37BD4673
:105390005DF8047B704780B483B000AF786000BFD5
:1053A0000C37BD465DF8047B7047000080B485B0C3
:1053B00000AF786039607B681B68FB607B68404A9F
:1053C000934213D07B68B3F1804F0FD07B683D4A86
:1053D00093420BD07B683C4A934207D07B683B4AA0
:1053E000934203D07B683A4A934208D1FB6823F08A
:1053F0007003FB603B685B68FA681343FB607B6883
:105400002F4A93422BD07B68B3F1804F27D07B6823
:105410002C4A934223D07B682B4A93421FD07B684F
:105420002A4A93421BD07B68294A934217D07B6853
:10543000284A934213D07B68274A93420FD07B6857
:10544000264A93420BD07B68254A934207D07B685B
:10545000244A934203D07B68234A934208D1FB68D5
:1054600023F44073FB603B68DB68FA681343FB601E
:10547000FB6823F080023B685B691343FB607B6839
:10548000FA681A603B689A687B68DA623B681A6857
:105490007B689A627B680A4A934203D07B680C4A15
:1054A000934203D13B681A697B681A637B680122C7
:1054B0005A6100BF1437BD465DF8047B704700BFDA
:1054C000000001400004004000080040000C0040C3
:1054D00000040140004001400044014000480140F8
:1054E00000180040001C00400020004080B487B03D
:1054F00000AFF860B9607A60FB681B6A7B61FB688B
:105500001B6A23F00102FB681A62FB689B693B611E
:105510003B6923F0F0033B617B681B013A6913434D
:105520003B617B6923F00A037B617A69BB681343A3
:105530007B61FB683A699A61FB687A691A6200BF0D
:105540001C37BD465DF8047B704780B487B000AF60
:10555000F860B9607A60FB681B6A23F01002FB6890
:105560001A62FB689B697B61FB681B6A3B617B6914
:1055700023F470437B617B681B037A6913437B616F
:105580003B6923F0A0033B61BB681B013A691343ED
:105590003B61FB687A699A61FB683A691A6200BFED
:1055A0001C37BD465DF8047B704780B485B000AF02
:1055B000786039607B689B68FB60FB6823F0700350
:1055C000FB603A68FB68134343F00703FB607B68AA
:1055D000FA689A6000BF1437BD465DF8047B7047D7
:1055E00080B487B000AFF860B9607A603B60FB6858
:1055F0009B687B617B6923F47F437B613B681A0274
:105600007B681A43BB6813437A6913437B61FB6869
:105610007A699A6000BF1C37BD465DF8047B70470D
:1056200080B485B000AF786039607B6893F83C3017
:10563000012B01D102235AE07B68012283F83C2030
:105640007B68022283F83D207B681B685B68FB60F7
:105650007B681B689B68BB60FB6823F07003FB6082
:105660003B681B68FA681343FB607B681B68FA6839
:105670005A607B681B68214A934222D07B681B6872
:10568000B3F1804F1DD07B681B681D4A934218D030
:105690007B681B681B4A934213D07B681B681A4ABD
:1056A00093420ED07B681B68184A934209D07B68EE
:1056B0001B68174A934204D07B681B68154A9342C3
:1056C0000CD1BB6823F08003BB603B685B68BA68A1
:1056D0001343BB607B681B68BA689A607B680122D1
:1056E00083F83D207B68002283F83C200023184685
:1056F0001437BD465DF8047B704700BF00000140D1
:105700000004004000080040000C0040000401407C
:10571000004001400018004080B483B000AF7860C2
:1057200000BF0C37BD465DF8047B704780B483B082
:1057300000AF786000BF0C37BD465DF8047B704752
:10574000014B1868704700BF1400002070B50D4D64
:105750000D4C641BA4100026A64209D10B4D0C4C25
:1057600000F08EFC641BA4100026A64205D170BD7B
:1057700055F8043B98470136EEE755F8043B984747
:105780000136F2E78869000888690008886900081E
:105790008C69000802440346934200D1704703F825
:1057A000011BF9E70EB400B59CB01DAB029006904A
:1057B0006FF00041094807910491094953F8042BFF
:1057C00005910068019302A900F068F8029B00228D
:1057D0001A701CB05DF804EB03B070471400002091
:1057E0000802FFFF2DE9F0478E689E4282460C4674
:1057F00090461F4638D88A8912F4906F32D02568B7
:105800000969A5EB0109656905EB450505EBD5754A
:1058100001334B446D109D4238BF1D46530531D5B1
:10582000294600F063FB064650B90C23CAF8003045
:10583000A38943F04003A3814FF0FF30BDE8F08718
:1058400021694A4600F0BEFAA38923F4906343F02D
:105850008003A381266165614E44A5EB090526609E
:10586000A5603E46BE4200D93E46206832464146CB
:1058700000F0B6FAA3689B1BA3602368334423603F
:105880000020DBE72A4600F0A5FB06460028E1D110
:105890002169504600F0BEFAC7E700002DE9F04F3D
:1058A00098468B891B069DB007460D4614460ED5BB
:1058B0000B6963B9402100F019FB2860286120B909
:1058C0000C233B604FF0FF30D1E040236B6100239D
:1058D000099320238DF82930CDF80C803023DFF890
:1058E000A8818DF82A304FF0010923469A4613F813
:1058F000012B0AB1252AF9D1BAEB040B0BD05B4678
:10590000224629463846FFF76DFF013000F0AA8095
:10591000099A5A4409929AF80030002B00F0A280AC
:1059200000234FF0FF32CDE905230AF1010A049369
:1059300007938DF853301A935446052214F8011B2F
:105940005148FAF745FC049AD8B9D00644BF202341
:105950008DF85330110744BF2B238DF853309AF83C
:1059600000302A2B15D0079A544600204FF00A0C1D
:10597000214611F8013B303B092B4ED9B0B10792BB
:1059800014E0A0EB080309FA03F313430493A246BF
:10599000D2E7039B191D1B680391002BBBBF5B4221
:1059A00042F0020207930793B8BF049223782E2B8C
:1059B0000CD163782A2B35D1039B1A1D1B680392E7
:1059C000002BB8BF4FF0FF3302340593DFF8C8A0B7
:1059D000217803225046FAF7FBFB40B14023A0EBAD
:1059E0000A0003FA00F0049B03430134049314F803
:1059F000011B26488DF828100622FAF7E9FB00283B
:105A000038D0234B1BBB039B073323F0070308331A
:105A10000393099B3344099367E70CFB02320C465E
:105A20000120A5E700230134059319464FF00A0C25
:105A3000204610F8012B303A092A03D9002BC5D093
:105A40000591C3E70CFB012104460123F0E703ABFA
:105A500000932A460F4B04A93846AFF30080421C3E
:105A60000646D6D1AB895B063FF52CAF09981DB031
:105A7000BDE8F08F03AB00932A46064B04A93846D5
:105A800000F07AF8EBE700BF4C690008566900089F
:105A900000000000E5570008526900082DE9F047B2
:105AA000164699468A680B69DDF820809342B8BF94
:105AB0001346336091F8432007460C460AB1013380
:105AC00033602368990642BF336802333360256828
:105AD00015F0060506D104F1190AE36832689B1A2D
